00433716800014812345678901DECR.783/93-25/03/93-PORT.INTERM.NR.43-29/07/20,PORT.INTERM.171/16-RESOL.205/21.MOTOCICLETA HONDA CRF 250F DE 22,2CV E 249,5CC ANO MOD 2025 ANO FAB 2024 A GASOL87112020UNIDADE                                                                         00000011450000000000000000000000000000000000N                               2F
11   MOTOCICLETA HONDA CRF 250F DE 22,2CV E 249,5CC ANO MOD 2025 ANO FAB 2024 A GASOL000000000216693K99 001NS      
21   000000013912   04337168000148063002280      20240126A2513FER 9900 FERRO ENXOFRE SAO                                                 GRAMA                                                                           25030010000000023480000000000000001138
22   00000043391    43170786000106379067207112   20220427A2513FER 9901 FERRO CROMO SAO                                                   GRAMA                                                                           72024900000000021450000000000000007558
23   00000011781    28710033000225392278722110   20231212A2513FER 9902 FERRO SILICIO SAO                                                 GRAMA                                                                           72022100000000304790000000000000005065
24   00000011791    28710033000225392278722110   20231212A2513FER 9903 FERRO MANGANES SAO                                                GRAMA                                                                           72021900000000097520000000000000005655
25   00000011791    28710033000225392278722110   20231212A2513FER 9904 FERRO FOSFORO SAO                                                 GRAMA                                                                           72029910000000050290000000000000002990
26   00002047051    203887570001016724581580006  20230912A2513FER 9905 FERRO GUSA SAO                                                    GRAMA                                                                           72011000000005906750000000000000000501
27   00003531801    51557106000121108932775117   20231218A2513FER 9906 FERRO SILICIO INOCULANTE                                          GRAMA                                                                           72022100000000058490000000000000006705
28   00001237471    18001764000167188133518115   20240115A2516COB 9900 COBRE ELETROLITICO SAO                                            GRAMA                                                                           74081100000000024330000000000000009755
29   00000020302    15181688001607261443380      20240124A2539REC 9900 RECARBURANTE SAO                                                  GRAMA                                                                           27040090000000334090000000000000000707
210  00000782065    60435351004730407221130116   20240103A2628ESP 0102 POLIOL FORMULADO                                                  QUILO                                                                           39072939000000005590000000000004102203
211  00000782955    60435351004730407221130116   20240105A2628ESP 0103 ISOCIANATO FORMULADO                                              QUILO                                                                           39093100000000001760000000000005825814
212  000014625315   05541925000163063002302      20231214A3105CHP 0233 RETALHO DE CHAPA                                                  QUILO                                                                           72042900000000006520000000000000147546
213  00001253401    01535521000106063001837      20240205A3905BLK 9900 116 BLANK 0.8X425X560                                             QUILO                                                                           72122090000000014950000000000002785592
214  00001252011    01535521000106063001837      20240130A3905BLK 9900 117 BLANK 0.8X390X575                                             QUILO                                                                           72122090000000014080000000000002798351
215  00001347471    05304298000147482099979115   20231221A4015LIN 0118 LINGOTE ALUMINIO HD2 SAO                                          QUILO                                                                           76012000000000050480000000000002521977
216  00001086351    22805436000190041883209      20231108B0101TIN 0008 TINTA SATURNO VINIL.FOSCA                                         LITRO                                                                           32089010000000000010000000000019388150
217  00005685811    15373395000145796011654119   20240110B0401OIL 0004 DILUENTE PESADO TINTA SAO                                         LITRO                                                                           38140090000000001160000000000002045035
218  00005681971    15373395000145796011654119   20240103B0501CAT 0001 CATALIZADOR SAO                                                   LITRO                                                                           38249931000000000020000000000010728523
219  00005684081    15373395000145796011654119   20240108B0701CUL 0002 CULMINAL PRATA NH-109 SAO                                         LITRO                                                                           32089010000000002430000000000005741237
220  00002742987    61105060000163252895738      20231221B1201COL 0001 COLA BRASCOPLAST UNIVERSAL SAO                                    QUILO                                                                           35069190000000000010000000000006175800
221  00000704771    55484976000179111439073113   20240108B1805GRA 0100 GRAMPO FIX. CAPA ASSENTO SAO                                      UNIDADE                                                                         83052000000000820000000000000000001057
222  00015333651    3300009200385081873879       20231206B2617OLE 0102 OLEO MULT.SAE10W30SL SAO                                          MILILITRO                                                                       27101932000015800000000000000000002424
223  00005684091    15373395000145796011654119   20240108B2622DIL 0100 DILUENTE PU TURBO METALICO SAO                                    LITRO                                                                           38140090000000000010000000000002398959
224  00005335411    15373395000145796011654119   20230315B2622DIL 0101 DILUENTE PU TURBO SOLIDO SAO                                      LITRO                                                                           38140090000000000030000000000003540076
225  00005685811    15373395000145796011654119   20240110B2623DIL 0100 DILUENTE ESP.TURBOI P/PRIMER                                      LITRO                                                                           38140090000000000210000000000003158648
226  00016426130    610745060001301863356610018  20231227B2811MIG 0118 ARAME MIG 1 0MM                                                   QUILO                                                                           72292000000000007130000000000002548386
227  00016425730    610745060001301863356610018  20231227B2811MIG 0122 ARAME MIG 1 0MM BARRICA                                           QUILO                                                                           72292000000000000800000000000002595693
228  00000638921    53910899001037442330581115   20240108B2811MIG 0124 ARAME SOLDA MIG BRAZING 1 0MM                                     QUILO                                                                           83119000000000000360000000000025731885
229  00016400060    610745060001301863356610018  20231208B2811MIG 0125 ARAME MIG 0 8MM                                                   QUILO                                                                           72292000000000000390000000000002606922
230  00000638931    53910899001037442330581115   20240108B2814MIG 0100 ARAME P/SOLDA MIG ALUMINIO SAO                                    QUILO                                                                           76052990000000000890000000000018376433
231  00005655191    15373395000145796011654119   20231204B3609ESM 0337 ESM.AC.MET. NH-303M SAO                                           LITRO                                                                           32082019000000001180000000000007555465
232  00005684081    15373395000145796011654119   20240108B3609ESM 0357 ESM AC ELET. PRETO NH1 SAO                                        LITRO                                                                           32081010000000000530000000000004275433
233  00005685821    15373395000145796011654119   20240110B3609PRM 0123 PRIMER EPOXY ECO FLEX PRETO                                       LITRO                                                                           32089010000000000420000000000006192425
234  00005684081    15373395000145796011654119   20240108B3609PRM 0124 PRIMER EPOXY ECO FLEX CINZA                                       LITRO                                                                           32089010000000000370000000000006619500
235  00005545441    15373395000145796011654119   20230904B3609TIN 0135 TINTA PU NH-B78M                                                  LITRO                                                                           32081010000000000050000000000015195351
236  00000546021    53910899001037442330581115   20221118B4014BAR 0100 VARETA P/SOLDA TIG ALUMINIO SP                                    QUILO                                                                           76042919000000000120000000000016853995
237  00001065941    07519331000181063004224      20240125D2203MAN 1190 MANUAL PROP.CRF 250F MAO                                          UNIDADE                                                                         49111010000000010000000000000000687921
238  00000481947    01111039000149063002434      20240125D2403ETI 0134 ETIQ.TAG 7PT 60MM X 41MM                                          UNIDADE                                                                         39191010000000010000000000000000016996
239  00000482057    01111039000149063002434      20240126D2403ETI 0142 ETIQ.ADES.BRANCA 60MMX27MM                                        UNIDADE                                                                         39191090000000010000000000000000016832
240  00000419181    00021622000104461029350117   2024010511104K31 9000 H1 BUCHA SAO                                                      PECA                                                                            73182900000000020000000000000001235471
241  00001800621    43803725000120110400011110   2023122211133K31 9000 DA ORIFICIO 1 8MM                                                 PECA                                                                            84099190000000010000000000000000140507
242  00003209331    06037638000183442196245110   2024010411203K31 9000 JUNCAO RESPIRO                                                    PECA                                                                            84099190000000010000000000000000485628
243  00005219191    68032648000264312025159110   2024010511215K31 9001 PLACA ENCOSTO ROLAM. SAO                                          PECA                                                                            87141000000000010000000000000000219092
244  00002116971    04414488000154063002418      2024020611331K99 A000 AC TAMPA LATERAL DIREITA MAO                                      PECA                                                                            84099190000000010000000000000010097264
245  00002116971    04414488000154063002418      2024020611341K31 9000 AE TAMPA LATERAL ESQUERDA MAO                                     PECA                                                                            84099190000000010000000000000006089159
246  00005219071    68032648000264312025159110   2024010511345K31 9001 PRESILHA FIACAO                                                   PECA                                                                            73261900000000010000000000000000176725
247  00005218511    68032648000264312025159110   2024010411346K31 9002 PRESILHA FIACAO SAO                                               PECA                                                                            73261900000000010000000000000000175709
248  00006379632    84501873000178063002558      2024013111361K99 A000 TAMPA TRASEIRA ESQ. NH-1                                          PECA                                                                            87141000000000010000000000000001619095
249  00000755491    10310057000140063005905      2024020111363K99 A000 GUIA POSICION.CORRENTE                                            PECA                                                                            84099190000000010000000000000000891393
250  00000295111    04777862000186063000555      2024020211394K31 9010 JUNTA TAMPA LAT.DIR. LEAK                                         PECA                                                                            48239099000000010000000000000000571393
251  00000295111    04777862000186063000555      2024020211395K31 9010 JUNTA TAMPA ESQ.MOTOR LEAK                                        PECA                                                                            48239099000000010000000000000000377490
252  00000295111    04777862000186063000555      2024020212191K31 9010 JUNTA CILINDRO LEAK                                               PECA                                                                            48239099000000010000000000000000045927
253  00000398161    878887720001901770009873     2024011512204K99 A001 H1 GUIA DE VALVULA SAO                                            PECA                                                                            84099117000000040000000000000000222752
254  00002861097    48610521000197244027839113   2023122012213KSP 9100 PRESILHA GUIA VALVULA SAO                                         PECA                                                                            84099190000000040000000000000000004311
255  00002114731    04414488000154063002418      2024020212311K31 9000 TAMPA CABECOTE MAO                                                PECA                                                                            84099190000000010000000000000002697082
256  00006602118    57576274000140482020389119   2023122713101K31 9000 PISTAO SAO                                                        PECA                                                                            84099120000000010000000000000006055245
257  000001966955   28938475000142796649756113   2024010413112KPF 9601 PRESILHA PINO PISTAO 17MM SAO                                     PECA                                                                            73262000000000020000000000000000005397
258  00003051281    04944068000180063000148      2024020313201K31 9001 H1 BIELA MAO                                                      PECA                                                                            84099111000000010000000000000004548299
259  00003051871    04944068000180063000148      2024020513311K31 9001 AA VIRABREQUIM DIR. MDA                                           PECA                                                                            84831019000000010000000000000010174265
260  00003051871    04944068000180063000148      2024020513321K31 9001 AA VIRABREQUIM ESQ. MDA                                           PECA                                                                            84831019000000010000000000000010642350
261  00004320422    10963007000162001418521      2024013013400K31 9000 CONJ.EIXO BALANCEIO                                               PECA                                                                            84099190000000010000000000000018752162
262  00004312452    10963007000162001418521      2024010813417K31 9000 H1 ENGRENAGEM BAL.MOTORA                                          PECA                                                                            84834090000000010000000000000003614702
263  00003050941    04944068000180063000148      2024020214100K31 9002 ARVORE COMANDO ADM. MAO                                           PECA                                                                            84831020000000010000000000000010182699
264  00004313222    10963007000162001418521      2024010914311K31 9001 PINHAO COMANDO SAO                                                PECA                                                                            84839000000000010000000000000001987770
265  00004312602    10963007000162001418521      2024010814321K31 9001 COROA COMANDO SAO                                                 PECA                                                                            84839000000000010000000000000002396926
266  00000778611    08996956000105063005140      2024020114401K31 9011 M1 CORRENTE COMANDO DAIDO                                         PECA                                                                            73151210000000010000000000000002935251
267  00001043651    57077026000155111763020118   2024010414451K31 9001 EIXO BALANCIM SAO                                                 PECA                                                                            84099190000000020000000000000000684275
268  000066509210   57000036000192669097115112   2024011114510K31 9000 CONJ.TENSOR SAO                                                   PECA                                                                            84099190000000010000000000000002566565
269  00000756191    10310057000140063005905      2024020314515K31 9001 PLACA TENSOR MAO                                                  PECA                                                                            84099190000000010000000000000000207832
270  00000295391    04777862000186063000555      2024020514560KRM 8400 JUNTA ACIONADOR TENSOR LEAK                                       PECA                                                                            73269090000000010000000000000000071590
271  000066493410   57000036000192669097115112   2024010914611K31 9002 GUIA CORRENTE COMANDO SAO                                         PECA                                                                            84099190000000010000000000000001368126
272  00002861117    48610521000197244027839113   2023122014751K31 9000 MOLA VALVULA EXTERNA                                              PECA                                                                            73202010000000040000000000000000422883
273  00002861097    48610521000197244027839113   2023122014761K31 9000 MOLA VALVULA INTERNA                                              PECA                                                                            73202010000000040000000000000000272252
274  00001772691    56994460000137100057537115   2024011015021K31 9000 JG.ROTOR BOMBA OLEO                                               PECA                                                                            84139190000000010000000000000000808720
275  00002114721    04414488000154063002418      2024020215101K31 9000 TAMPA BOMBA OLEO MTF                                              PECA                                                                            84139190000000010000000000000001283940
276  00001803111    43803725000120110400011110   2024010815102K31 9000 DA PLACA BOMBA OLEO                                               PECA                                                                            84139190000000010000000000000000704419
277  00001996251    31303127000103063009919      2024020215130K31 9000 ENGRENAG.BOMBA OLEO                                               PECA                                                                            84834090000000010000000000000000498637
278  00001043611    57077026000155111763020118   2024010415141K31 9001 EIXO BOMBA OLEO SAO                                               PECA                                                                            84139190000000010000000000000001188895
279  00002634201    61014585000193105446355110   2024010515231KPF 9000 VALVULA DE ALIVIO SAO                                             PECA                                                                            84814000000000010000000000000000168658
280  00002828317    48610521000197244027839113   2023100215232HM3 6702 MOLA VALVULA DE ALIVIO SAO                                        PECA                                                                            73202090000000010000000000000000021337
281  00001481381    62430194000112336177074113   2023121515235K31 9000 TAMPA VALVULA DE ALIVIO SAO                                       PECA                                                                            84139190000000010000000000000000231787
282  00002116891    04414488000154063002418      2024020615411K31 9000 AA TAMPA FILTRO DE OLEO S/PINT                                    PECA                                                                            84099190000000010000000000000001152988
283  000001975455   28938475000142796649756113   2024010815414KF0 0002 MOLA ELEMENTO FILTRO OLEO SAO                                     PECA                                                                            73202010000000010000000000000000051049
284  00000721492    23007560000173063000741      2024020115651K99 A000 MEDIDOR NIVEL OLEO BLACK                                          PECA                                                                            90261029000000010000000000000000223619
285  00006381295    52850682000125461000050119   2024010216210K31 9000 COLETOR MODULO ALIM. SAO                                          PECA                                                                            84099115000000010000000000000003394360
286  000001960855   28938475000142796649756113   2024010316221K99 A000 H1 BRACADEIRA SAO                                                 PECA                                                                            73269090000000010000000000000000473034
287  00008441215    61096996000175407068040112   2024011216222KRM 8400 H1 PORCA QUAD.5MM SAO                                             PECA                                                                            73181600000000010000000000000000020919
288  00001800621    43803725000120110400011110   2023122216223KRE G000 DA BUCHA SAO                                                      PECA                                                                            73182900000000010000000000000000083890
289  00000295111    04777862000186063000555      2024020216291K31 9010 JUNTA COLETOR ADMISSAO LEAK                                       PECA                                                                            48239099000000010000000000000000048470
290  00000721492    23007560000173063000741      2024020116305K99 A000 TAMPA MODULO ACELERADOR                                           PECA                                                                            87141000000000010000000000000000556025
291  00000856064    04161047000198063001616      2024020116400K99 A020 M1 CONJ.MODULO ACELERADOR MAO                                     PECA                                                                            84099140000000010000000000000041256698
292  00000592031    05299463000110063000849      2024020316700K99 A011 M1 CONJ.UNID.BOMBA COMB.                                          PECA                                                                            84133010000000010000000000000042283234
293  000014748315   05541925000163063002302      202402051720AK99 A300 JOGO FILTRO DE AR                                                 PECA                                                                            84213100000000010000000000000012607902
294  00001801981    43803725000120110400011110   2024010417223KVS F301 DA BUCHA FILTRO DE AR SAO                                         PECA                                                                            73182900000000010000000000000000085493
295  000001960855   28938475000142796649756113   2024010317316KRH D201 PRESILHA TUBO RESPIRO SAO                                         PECA                                                                            39269090000000020000000000000000046826
296  00001802841    43803725000120110400011110   2024010817509KPS 9001 BUCHA CONJ.TANQUE SAO                                             PECA                                                                            73182900000000020000000000000000188989
297  00000742981    46792370000100636075530115   2024010817511K99 A000 H1 SUPORTE DIANTEIRO SAO                                          PECA                                                                            87141000000000010000000000000000502866
298  00000742981    46792370000100636075530115   2024010817512K99 A000 H1 PLACA DIANTEIRA SAO                                            PECA                                                                            87141000000000010000000000000000428803
299  00000743011    46792370000100636075530115   2024010817513K99 A000 H1 REFORCO DIANTEIRO SAO                                          PECA                                                                            87141000000000010000000000000000330690
2100 00000756141    10310057000140063005905      2024020317514K99 A000 H1 TRAVA COMP.ASSENTO MAO                                         PECA                                                                            87141000000000010000000000000000683314
2101 00001689621    43807239000180278077680110   2023122717516K99 A000 H1 ANEL JG.BOMBA COMBUSTIVEL                                      PECA                                                                            87141000000000010000000000000005647997
2102 00004072701    02499629000153063002493      2024020517519K99 A000 H1 FIXADOR COMP.TANQUE COMB.                                      PECA                                                                            87141000000000020000000000000000743667
2103 00006381785    52850682000125461000050119   2024010217522K99 A000 BORRACHA MONT.TANQUE                                              PECA                                                                            40169990000000020000000000000000242537
2104 00000743381    46792370000100636075530115   2024010917527K99 A000 PLACA COMP.FIXACAO SAO                                            PECA                                                                            73269090000000010000000000000002267285
2105 000081136124   45985371000108671000090114   2024012717534K99 A000 FILME PROTETOR A                                                  PECA                                                                            39199090000000010000000000000000703366
2106 000081136224   45985371000108671000090114   2024012717535K99 A000 FILME PROTETOR B                                                  PECA                                                                            39199090000000010000000000000001193283
2107 00000578731    03977372000160115949615110   2024010817536K99 A011 COXIM A TANQUE COMB.                                              PECA                                                                            40169990000000020000000000000000238045
2108 00004457621    57593253000567063001454      2024020317546K99 A000 DA CARENAGEM DIREITA B BLACK                                      PECA                                                                            87141000000000010000000000000000355304
2109 00000578731    03977372000160115949615110   2024010817547K99 A000 COXIM B                                                           PECA                                                                            40169990000000020000000000000000293059
2110 00004457621    57593253000567063001454      2024020317556K99 A000 DA CARENAGEM ESQUERDA B BLACK                                     PECA                                                                            87141000000000010000000000000000355304
2111 00004457631    57593253000567063001454      2024020317560K99 A000 20DA TAMPA CENTRAL TANQUE BLACK                                   PECA                                                                            87141000000000010000000000000000530937
2112 00000756141    10310057000140063005905      2024020317561K99 A000 H1 REFORCO TRAS.DIREITO MAO                                       PECA                                                                            87141000000000010000000000000000290743
2113 00000756141    10310057000140063005905      2024020317562K99 A000 H1 REFORCO TRAS.ESQUERDO MAO                                      PECA                                                                            87141000000000010000000000000000290743
2114 00004072671    02499629000153063002493      2024020517565K99 A000 H1 SUPORTE COMP.TRAS.DIREITO                                      PECA                                                                            87141000000000010000000000000001383991
2115 00004072671    02499629000153063002493      2024020517566K99 A000 H1 SUPORTE COMP.TRAS.ESQUERDO                                     PECA                                                                            87141000000000010000000000000001383991
2116 00004452581    57593253000567063001454      2024013117575K99 A000 CAPA CONEC.COMBUSTIVEL                                            PECA                                                                            39269090000000010000000000000000136109
2117 000014733715   05541925000163063002302      2024013118310K99 B000 ESCAPAMENTO COMP. NH-106 PT                                       PECA                                                                            87141000000000010000000000000035546978
2118 000014746515   05541925000163063002302      2024020518320K99 A000 TUBO ESCAP.COMP. NH-106 PT                                        PECA                                                                            87141000000000010000000000000020889564
2119 00001802861    43803725000120110400011110   2024010818327KRH D201 BUCHA CAMARA TRAS. 8 5X15 SAO                                     PECA                                                                            73182900000000010000000000000000208262
2120 000014746515   05541925000163063002302      2024020518345K99 A000 FA PROT.TB.ESCAP. NH-106 JAT/PT                                   PECA                                                                            87141000000000010000000000000001947315
2121 000014746615   05541925000163063002302      2024020518373K99 A000 PRES.TB.ESCAP. NH-106 JAT/PT                                      PECA                                                                            73261900000000010000000000000000905775
2122 00004073321    02499629000153063002493      2024020619040K99 A000 JUNTA DIR.TAMPA TANQUE                                            PECA                                                                            87141000000000010000000000000000496453
2123 00004073321    02499629000153063002493      2024020619050K99 A000 JUNTA ESQ.TAMPA TANQUE                                            PECA                                                                            87141000000000010000000000000000496453
2124 00002814261    02672357000141063001624      2024020222000K99 A010 M1 CONJ.EMBREAGEM                                                 PECA                                                                            84836011000000010000000000000034214191
2125 000066494010   57000036000192669097115112   2024010922116K31 9000 GUIA EXTERNA EMBREAGEM SAO                                        PECA                                                                            87141000000000010000000000000001775087
2126 00001803111    43803725000120110400011110   2024010822810K99 A000 ALAVANCA COMP.EMBREAGEM                                           PECA                                                                            87141000000000010000000000000003023115
2127 000001960455   28938475000142796649756113   2024010322815KM7 7002 MOLA ALAVANCA EMBREAGEM SAO                                       PECA                                                                            73202010000000010000000000000000073224
2128 00004073321    02499629000153063002493      2024020622821K99 A001 RECEPTOR CABO EMBREAGEM                                           PECA                                                                            87141000000000010000000000000000611955
2129 00001802871    43803725000120110400011110   2024010822847K31 9011 PINO HASTE                                                        PECA                                                                            84839000000000010000000000000002261323
2130 00003050941    04944068000180063000148      2024020223010K99 A000 CONJ.TRANSMISSAO PRINCIPAL                                        PECA                                                                            84831090000000010000000000000023405672
2131 00003050941    04944068000180063000148      2024020223020K99 A000 CONJ.TRANSMISSAO SECUNDARIA                                       PECA                                                                            84831090000000010000000000000029175330
2132 00004312612    10963007000162001418521      2024010823121K31 9000 ENGR.PRIMARIA MOTORA SAO                                          PECA                                                                            84834090000000010000000000000002693746
2133 00004312442    10963007000162001418521      2024010823801KPF 9603 PINHAO TRANSMISSAO SAO                                            PECA                                                                            87141000000000010000000000000002655119
2134 00005219131    68032648000264312025159110   2024010523802KYJ 9000 PLACA FIXACAO SAO                                                 PECA                                                                            87141000000000010000000000000000198020
2135 00003050941    04944068000180063000148      2024020224301K99 A000 TAMBOR SELETOR                                                    PECA                                                                            87141000000000010000000000000007192893
2136 00002635461    61014585000193105446355110   2024011024321KYJ 9000 EIXO GARFO SELETOR SAO                                            PECA                                                                            87141000000000010000000000000000921187
2137 00001247926    02778274000131748028755119   2023122824410KSP 8601 PLACA COMP.POSIC.MARCHA SAO                                       PECA                                                                            87141000000000010000000000000002515485
2138 000001980355   28938475000142796649756113   2024010924435K31 9000 MOLA DO POSICIONADOR SAO                                          PECA                                                                            73202010000000010000000000000000095564
2139 00002635521    61014585000193105446355110   2024011024610K31 9000 EIXO SELETOR MARCHAS SAO                                          PECA                                                                            84831090000000010000000000000004943705
2140 000001980355   28938475000142796649756113   2024010924651KRM 8403 MOLA RETORNO SELET.MARCHA SAO                                     PECA                                                                            73202010000000010000000000000000223440
2141 00001939771    47715610000135581010121118   2023121824652KRM 8401 PINO EIXO MOLA RETORNO SAO                                        PECA                                                                            73181500000000010000000000000000150740
2142 00001698261    43807239000180278077680110   2024012324700K99 A000 CONJ.PEDAL CAMBIO                                                 PECA                                                                            87141000000000010000000000000004849907
2143 00004312512    10963007000162001418521      2024010828111K31 9000 ENGR.PARTIDA MOVIDA SAO                                           PECA                                                                            84834090000000010000000000000007755956
2144 00004313172    10963007000162001418521      2024010928131K31 9000 ENGRENAG.RED.PARTIDA SAO                                          PECA                                                                            84834090000000010000000000000003629931
2145 00004312462    10963007000162001418521      2024010828141K31 9000 ENGRENAGEM INTERM.PARTIDA SAO                                     PECA                                                                            84834090000000010000000000000001561356
2146 00001801591    43803725000120110400011110   2024010228151K31 9000 DA EIXO ENGR.RED.PARTIDA                                          PECA                                                                            84834090000000010000000000000000379248
2147 00002633521    61014585000193105446355110   2024010328161K31 9000 EIXO ENGRENAGEM PARTIDA                                           PECA                                                                            84834090000000010000000000000000165244
2148 00006450797    52541760000100454036318111   2024011630700K31 9013 M1 CONJ.SUPRESSOR RUIDO SAO                                       PECA                                                                            85119000000000010000000000000001402879
2149 00001223264    84657907000118063000474      2024020231110K99 A010 M1 ROTOR COMPLETO                                                 PECA                                                                            85119000000000010000000000000025890784
2150 00001224524    84657907000118063000474      2024020631120K99 A010 M1 ESTATOR COMPLETO                                               PECA                                                                            85119000000000010000000000000017649442
2151 00000591881    05299463000110063000849      202402023120AK99 A001 JG.MOTOR PARTIDA MAO                                              PECA                                                                            85114000000000010000000000000023847784
2152 00006227501    01376079000112669323816112   2024011531500KRM B263 M1 CONJ.BATERIA DTZ6 SAO                                          PECA                                                                            85071010000000010000000000000012601959
2153 00006450797    52541760000100454036318111   2024011631908K31 9010 M1 VELA IGNICAO LMAR7H-9DS                                        PECA                                                                            85111000000000010000000000000001421420
2154 00000398921    08962294000144063005158      2024012932100K99 B012 FIACAO PRINCIPAL MAO                                              PECA                                                                            85443000000000010000000000000020326210
2155 00000399291    08962294000144063005158      2024020132401K99 A001 CABO PARTIDA BATERIA MAO                                          PECA                                                                            85444200000000010000000000000001279261
2156 00000542321    07379546000144063004089      2024020135100K99 A011 M1 CONJ.INTERRUPTOR IGNICAO                                       PECA                                                                            87141000000000010000000000000003616181
2157 00000542341    07379546000144063004089      2024020135860K99 A000 JG.MAGNETO PARTIDA                                                PECA                                                                            85112010000000010000000000000004508642
2158 00001734622    83538215000198250581744      2023121938506KVS 6001 COXIM RELE SAO                                                    PECA                                                                            40169990000000010000000000000000227989
2159 00001220874    84657907000118063000474      2024012738700K99 B020 M1 CJ.UNID.PGM-FI/IGNICAO                                         PECA                                                                            90328925000000010000000000000013341600
2160 00000778901    08996956000105063005140      2024020340530K99 A020 M1 CORRENTE TRANS.DID520VD2-112LE                                 PECA                                                                            73151210000000010000000000000016751791
2161 00005219061    68032648000264312025159110   2024010540544KPS 7303 AJUSTADOR DIR.CORRENTE TRANSM.                                    PECA                                                                            87141000000000010000000000000001391083
2162 00005220631    68032648000264312025159110   2024010640545KPS 7303 AJUSTADOR ESQ.CORRENTE TRANSM.                                    PECA                                                                            87141000000000010000000000000001391083
2163 00005224731    68032648000264312025159110   2024011042307KPS 9000 H1 ARRUELA DO GARFO SAO                                           PECA                                                                            73182200000000020000000000000000725035
2164 00001043611    57077026000155111763020118   2024010442312K99 A000 BUCHA ESQ.RODA TRASEIRA                                           PECA                                                                            73182900000000010000000000000001229597
2165 00001043611    57077026000155111763020118   2024010442312MCG 0002 BUCHA DIR.RODA TRAS. SAO                                          PECA                                                                            87141000000000010000000000000000760671
2166 000014748315   05541925000163063002302      2024020542600K99 A003 CONJ.RODA TRASEIRA HC                                             PECA                                                                            87141000000000010000000000000110644376
2167 00002184091    01771241000105063000164      202402034310AK99 A003 CJ.CALIPER FREIO TRAS.COMP.MAO                                    PECA                                                                            87141000000000010000000000000051781568
2168 00001480461    62430194000112336177074113   2023121244301K99 A001 EIXO RODA DIANTEIRA                                               PECA                                                                            87141000000000010000000000000003301171
2169 00001801991    43803725000120110400011110   2024010444311KPE 9002 ESPACADOR LAT.RODA DIANT.                                         PECA                                                                            87141000000000010000000000000001063067
2170 00001801621    43803725000120110400011110   2024010244311K99 A000 ESPACADOR RODA DIANT. SAO                                         PECA                                                                            87141000000000010000000000000001141452
2171 000014748415   05541925000163063002302      2024020544600K99 A001 CONJ.RODA DIANTEIRA HC                                            PECA                                                                            87141000000000010000000000000080658561
2172 00002184091    01771241000105063000164      2024020345100KZ4 J212 M1 CJ.CALIPER DT.ESQ. NISSIN                                      PECA                                                                            87141000000000010000000000000020656101
2173 00001801601    43803725000120110400011110   2024010245461KPS 9001 PRESILHA A MANGUEIRA FREIO SAO                                    PECA                                                                            87141000000000010000000000000000163851
2174 00005576923    59274332000107635047764116   2024010545462KPE 7303 PRESILHA B FREIO DIANT. SAO                                       PECA                                                                            73261900000000010000000000000000534767
2175 00002184091    01771241000105063000164      2024020345500KPS 9015 M1 CJ.CIL.MESTRE DT. NISSIN                                       PECA                                                                            87141000000000010000000000000011999596
2176 00001700181    43807239000180278077680110   2024012946500K99 A001 PEDAL FREIO COMP. SAO                                             PECA                                                                            87141000000000010000000000000007856678
2177 000001980355   28938475000142796649756113   2024010946511K99 A000 CONJ.MOLA PEDAL FREIO TRAS.                                       PECA                                                                            73202010000000010000000000000000400294
2178 00000756321    10310057000140063005905      202402055010NK99 A000 SUPTE.TRAS.ESQ.TANQUE COMP.                                       PECA                                                                            87141000000000010000000000000000895744
2179 00004069161    02499629000153063002493      2024020250101K99 A000 H1 TUBO COLUNA COMP. MAO                                          PECA                                                                            87141000000000010000000000000010580397
2180 00004066901    02499629000153063002493      2024020150102K99 A000 H1 TUBO PRINCIPAL COMP.                                           PECA                                                                            87141000000000010000000000000001728514
2181 000014746615   05541925000163063002302      2024020550103K99 A000 20 TUBO DIREITO                                                   PECA                                                                            87141000000000010000000000000003880445
2182 000014746615   05541925000163063002302      2024020550104K99 A000 20 TUBO ESQUERDO                                                  PECA                                                                            87141000000000010000000000000003880445
2183 000014747515   05541925000163063002302      2024020550105K99 A000 20 TUBO INFERIOR DIREITO                                          PECA                                                                            87141000000000010000000000000004218844
2184 00001802931    43803725000120110400011110   2024010850105K99 A000 21 BUCHA                                                          PECA                                                                            73182900000000040000000000000000520574
2185 000014746615   05541925000163063002302      2024020550106K99 A000 20 TUBO INFERIOR ESQUERDO                                         PECA                                                                            87141000000000010000000000000004218844
2186 000014743615   05541925000163063002302      2024020350107K99 A000 H1 TUBO INFERIOR                                                  PECA                                                                            87141000000000010000000000000004449379
2187 00000756301    10310057000140063005905      2024020550108K99 A000 H1 REFCO.TUBO COLUNA SUPERIOR                                     PECA                                                                            87141000000000010000000000000001547598
2188 00000756141    10310057000140063005905      2024020350109K99 A000 H1 REFORCO TUBO PRINCIPAL                                         PECA                                                                            87141000000000010000000000000000905380
2189 000014747915   05541925000163063002302      2024020550110K99 A001 20 REFORCO DIREITO                                                PECA                                                                            87141000000000010000000000000001594731
2190 000014743415   05541925000163063002302      2024020350111K99 A002 H1 REFORCO ESQUERDO                                               PECA                                                                            87141000000000010000000000000002143938
2191 00001801961    43803725000120110400011110   2024010450112K99 A000 21 LIMITADOR TUBO GUIDAO                                          PECA                                                                            87141000000000010000000000000000140690
2192 000014747515   05541925000163063002302      2024020550112K99 A001 20 SUPORTE                                                        PECA                                                                            87141000000000010000000000000002350557
2193 000014743415   05541925000163063002302      2024020350113K99 A000 H1 REFORCO TRANSV.DIREITO                                         PECA                                                                            87141000000000010000000000000003409710
2194 000014712215   05541925000163063002302      2024012450114K99 A000 H1 REFORCO TRANSV.ESQUERDO                                        PECA                                                                            87141000000000010000000000000003412810
2195 00004071461    02499629000153063002493      2024020550115K99 A000 H1 PLACA COMP.INFERIOR DIR.                                       PECA                                                                            87141000000000010000000000000003602836
2196 00004072281    02499629000153063002493      2024020550116K99 A000 H1 PLACA COMP.INFERIOR ESQ.                                       PECA                                                                            87141000000000010000000000000003623100
2197 000014694315   05541925000163063002302      2024011850117K99 A001 H1 SUPTE.TUBO INF.FRONTAL                                         PECA                                                                            87141000000000010000000000000000725967
2198 000014677715   05541925000163063002302      2024011550118K99 A000 H1 SUPTE TUBO INF.TRAS.                                           PECA                                                                            87141000000000010000000000000000623027
2199 00004066911    02499629000153063002493      2024020150119K99 A000 H1 PLACA SUP.AMORT.TRAS.                                          PECA                                                                            87141000000000010000000000000005213747
2200 00004066911    02499629000153063002493      2024020150120K99 A000 H1 PLACA INF.AMORT.TRAS                                           PECA                                                                            87141000000000010000000000000003114549
2201 000014746715   05541925000163063002302      2024020550121K99 A000 H1 TUBO ASSENTO DIREITO                                           PECA                                                                            87141000000000010000000000000003505572
2202 000014746815   05541925000163063002302      2024020550122K99 A000 H1 TUBO ASSENTO ESQUERDO                                          PECA                                                                            87141000000000010000000000000003505572
2203 000014746815   05541925000163063002302      2024020550123K99 A000 H1 SUBTUBO DIREITO                                                PECA                                                                            87141000000000010000000000000003495440
2204 000014746815   05541925000163063002302      2024020550124K99 A000 H1 SUBTUBO ESQUERDO                                               PECA                                                                            87141000000000010000000000000003495440
2205 000014747215   05541925000163063002302      2024020550127K99 A000 H1 TUBO TENSOR                                                    PECA                                                                            87141000000000010000000000000001148936
2206 000014746815   05541925000163063002302      2024020550128K99 A000 H1 TUBO TRANSV.CENTRAL                                            PECA                                                                            87141000000000010000000000000003458966
2207 00000756301    10310057000140063005905      2024020550129K99 A000 H1 SUPTE.DIR.SUPERIOR TRAS.MOTOR                                  PECA                                                                            87141000000000010000000000000001564883
2208 00000756301    10310057000140063005905      2024020550130K99 A000 H1 SUPTE.ESQ.SUPERIOR TRAS.MOTOR                                  PECA                                                                            87141000000000010000000000000001622938
2209 00000756301    10310057000140063005905      2024020550131K99 A000 H1 SUPTE A TAMPA LATERAL DIREITA                                  PECA                                                                            87141000000000010000000000000000439351
2210 00000756301    10310057000140063005905      2024020550132K99 A000 H1 SUPTE B TAMPA LAT.DIREITA                                      PECA                                                                            87141000000000010000000000000000533272
2211 00000756301    10310057000140063005905      2024020550133K99 A000 H1 SUPORTE ESQ.FILTRO AR                                          PECA                                                                            87141000000000010000000000000000151691
2212 00004066911    02499629000153063002493      2024020150134K99 A000 H1 SUPTE.ESCAP.DIANT.COMP.                                        PECA                                                                            87141000000000010000000000000000830009
2213 000014719215   05541925000163063002302      2024012650135K99 A000 H1 TUBO TRANSV.INFERIOR                                           PECA                                                                            87141000000000010000000000000001953569
2214 00000756301    10310057000140063005905      2024020550136K99 A000 H1 SUPTE.DIR.INFERIOR TRAS.MOTOR                                  PECA                                                                            87141000000000010000000000000000788834
2215 00000756301    10310057000140063005905      2024020550137K99 A000 H1 SUPTE ESQ.INFERIOR TRAS.MOTOR                                  PECA                                                                            87141000000000010000000000000000794508
2216 00000756311    10310057000140063005905      2024020550138K99 A000 H1 SUPTE.INFERIOR AMORTECEDOR                                     PECA                                                                            87141000000000020000000000000001847760
2217 000001960855   28938475000142796649756113   2024010350139K99 A000 H1 GANCHO MOLA FREIO TRAS.                                        PECA                                                                            87141000000000010000000000000000066676
2218 00004066911    02499629000153063002493      2024020150140K99 A000 H1 SUPTE TAMPA LAT.ESQ.                                           PECA                                                                            87141000000000010000000000000001518997
2219 00000756311    10310057000140063005905      2024020550141K99 A000 H1 SUPTE.MOTOR DIANT.INF.DIR.                                     PECA                                                                            87141000000000010000000000000001134143
2220 00000756311    10310057000140063005905      2024020550142K99 A000 H1 SUPTE.MOTOR DIANT.INF.ESQ.                                     PECA                                                                            87141000000000010000000000000001135724
2221 00000756301    10310057000140063005905      2024020550143K99 A000 H1 JG.PLACA ASSENTO                                               PECA                                                                            87141000000000020000000000000000249361
2222 00004066921    02499629000153063002493      2024020150144K99 A000 H1 SUPTE.TRAS.COMP.ESCAPAM.                                       PECA                                                                            87141000000000010000000000000001583464
2223 00004068071    02499629000153063002493      2024020250145K99 A000 H1 SUPTE.AMORT.TRASEIRO MAO                                       PECA                                                                            87141000000000010000000000000002793984
2224 00000756301    10310057000140063005905      2024020550147K99 A000 H1 REFORCO LIMIT.INF.DIANT.DIR.                                   PECA                                                                            87141000000000010000000000000000332421
2225 00000756301    10310057000140063005905      2024020550148K99 A000 H1 SUPTE.BOB.IGNICAO                                              PECA                                                                            87141000000000010000000000000000535542
2226 00000756301    10310057000140063005905      2024020550149K99 A000 H1 SUPTE.COXIM JG.TANQUE                                          PECA                                                                            87141000000000020000000000000000125552
2227 00004072681    02499629000153063002493      2024020550150K99 A000 H1 SUPTE.COMP.CAVALETE LAT.                                       PECA                                                                            87141000000000010000000000000002156028
2228 000001960855   28938475000142796649756113   2024010350151K99 A000 H1 GUIA DIANT.CABO ACELERADOR                                     PECA                                                                            87141000000000010000000000000000107842
2229 000001960555   28938475000142796649756113   2024010350152K99 A000 H1 GUIA CABO ACELERADOR TRAS.                                     PECA                                                                            87141000000000010000000000000000132051
2230 000001960855   28938475000142796649756113   2024010350153K99 A000 H1 GUIA DIANT.CABO EMBREAGEM                                      PECA                                                                            87141000000000010000000000000000120236
2231 00004066921    02499629000153063002493      2024020150156K99 A000 H1 SUPTE.CILINDRO MESTRE TRAS.                                    PECA                                                                            87141000000000010000000000000002272452
2232 00000756321    10310057000140063005905      2024020550158K99 A000 H1 SUPTE.REFORCO DIR.CHASSI                                       PECA                                                                            87141000000000010000000000000001454366
2233 00000756321    10310057000140063005905      2024020550159K99 A000 H1 SUPTE.REFORCO ESQ.CHASSI                                       PECA                                                                            87141000000000010000000000000001473596
2234 00000756301    10310057000140063005905      2024020550160K99 A000 H1 SUPTE.TANQUE DIANT.                                            PECA                                                                            87141000000000010000000000000001006788
2235 00000756321    10310057000140063005905      2024020550161K99 A000 H1 SUPTE.TRAS.DIR.TANQUE                                          PECA                                                                            87141000000000010000000000000000542532
2236 00001043611    57077026000155111763020118   2024010450162K99 A000 H1 PORCA M10X39 5                                                 PECA                                                                            73181600000000040000000000000000989941
2237 00001043071    57077026000155111763020118   2024010250163K99 A000 H1 BUCHA PROTETORA                                                PECA                                                                            73182900000000010000000000000000432720
2238 000014686115   05541925000163063002302      2024011650164K99 A000 H1 PLACA REFORCO                                                  PECA                                                                            87141000000000010000000000000000065920
2239 00000742981    46792370000100636075530115   2024010850165K99 A000 H1 SUPTE.DIREITO FILTRO AR SAO                                    PECA                                                                            87141000000000010000000000000000297633
2240 00000742981    46792370000100636075530115   2024010850166K99 A000 H1 REFORCO DIR.TUBO PRINC. SAO                                    PECA                                                                            87141000000000010000000000000000396560
2241 00000743031    46792370000100636075530115   2024010850167K99 A000 H1 SUPTE.CARENAGEM SAO                                            PECA                                                                            87141000000000020000000000000000378954
2242 00000742981    46792370000100636075530115   2024010850169K99 A000 H1 SUPTE.PROTETOR MOTOR SAO                                       PECA                                                                            87141000000000040000000000000000363401
2243 00000743031    46792370000100636075530115   2024010850171K99 A000 H1 PLACA LIMIT.SUPERIOR DIANT.DIR                                 PECA                                                                            87141000000000010000000000000000323778
2244 00000743031    46792370000100636075530115   2024010850172K99 A000 H1 PLACA LIMIT.SUPERIOR DIANT.ESQ                                 PECA                                                                            87141000000000010000000000000000323778
2245 000014722015   05541925000163063002302      2024012950175K99 A000 H1 PLACA TRANSV.TUBO DIANT.SUP                                    PECA                                                                            87141000000000010000000000000000274211
2246 00000743031    46792370000100636075530115   2024010850176K99 A000 H1 SUPTE.FIACAO PRINCIPAL SAO                                     PECA                                                                            87141000000000010000000000000000318898
2247 00000756141    10310057000140063005905      2024020350177K99 A000 H1 PLACA TRANSVERSAL TRAS. MAO                                    PECA                                                                            87141000000000010000000000000000829756
2248 000001959955   28938475000142796649756113   2024010350178K99 A000 H1 PROTETOR CALCANHAR ESQ.                                        PECA                                                                            87141000000000010000000000000000081155
2249 00000742961    46792370000100636075530115   2024010850179K99 A000 H1 SUPTE.COMP.TRAS.ASSENTO SAO                                    PECA                                                                            87141000000000020000000000000000327518
2250 00000742981    46792370000100636075530115   2024010850180K99 A000 H1 REFORCO ESQ.TUBO PRINC. SAO                                    PECA                                                                            87141000000000010000000000000000396661
2251 00000755511    10310057000140063005905      2024020150182K99 A000 GUIA COMP.EMBREAGEM MAO                                           PECA                                                                            87141000000000010000000000000001703170
2252 00000742961    46792370000100636075530115   2024010850183K99 A000 H1 REFORCO DIREITO SAO                                            PECA                                                                            87141000000000010000000000000000435959
2253 00000742961    46792370000100636075530115   2024010850184K99 A000 H1 REFORCO ESQUERDO SAO                                           PECA                                                                            87141000000000010000000000000000435959
2254 00000743041    46792370000100636075530115   2024010850186K99 A001 H1 SUPTE.TUBO TRANSV.INFERIOR                                     PECA                                                                            87141000000000020000000000000000279539
2255 00000756301    10310057000140063005905      2024020550187K99 A000 H1 REFORCO LIMIT.INF.DIANT.ESQ.                                   PECA                                                                            87141000000000010000000000000000332421
2256 00006388502    84501873000178063002558      2024020350320K99 A000 CONJ.CAIXA DA BATERIA MAO                                         PECA                                                                            87141000000000010000000000000001399010
2257 00000755511    10310057000140063005905      2024020150326K99 A000 PRESILHA COMP.BATERIA                                             PECA                                                                            73261900000000010000000000000001080986
2258 00006379622    84501873000178063002558      2024013150351K99 A000 FA PROTETOR MOTOR NH-201R                                         PECA                                                                            87141000000000010000000000000001133570
2259 00006381775    52850682000125461000050119   2024010250355K99 B001 COXIM LIMITADOR C SAO                                             PECA                                                                            40169990000000010000000000000000372210
2260 00004071141    02499629000153063002493      2024020350530K99 A002 CAVALET LATERAL COMP. NH-1                                        PECA                                                                            87141000000000010000000000000008004441
2261 00000755511    10310057000140063005905      2024020150531K99 A000 PLACA MOTOR REFORCO DIR.                                          PECA                                                                            87141000000000010000000000000001858435
2262 00000755511    10310057000140063005905      2024020150532K99 A000 PLACA MOTOR REFORCO ESQ.                                          PECA                                                                            87141000000000010000000000000001217917
2263 00000755511    10310057000140063005905      2024020150533K99 A000 PLACA MOTOR REFORCO DIANT.                                        PECA                                                                            87141000000000020000000000000001288629
2264 00000756191    10310057000140063005905      2024020350535K99 A000 PLACA SUP.TRAS.SUPTE.MOTOR                                        PECA                                                                            87141000000000020000000000000000790108
2265 00001801611    43803725000120110400011110   2024010250538K99 A000 BUCHA REFORCO ESQ.MOTOR                                           PECA                                                                            73182900000000010000000000000000372997
2266 00001939881    47715610000135581010121118   2023121950603KPS 9003 PINO PEDAL SAO                                                    PECA                                                                            73182900000000020000000000000000272688
2267 00006379632    84501873000178063002558      2024013150611K99 A000 FA PROT.CALCANHAR DIR. NH-201R                                    PECA                                                                            87141000000000010000000000000000359573
2268 00001689771    43807239000180278077680110   2023122750612K99 A001 PEDAL DIR.COMP.                                                   PECA                                                                            87141000000000010000000000000004070425
2269 00001699621    43807239000180278077680110   2024012650615K99 A001 BRACO COMP.PEDAL DIREITO                                          PECA                                                                            87141000000000010000000000000003490404
2270 000001975255   28938475000142796649756113   2024010850617466 0006 MOLA PEDAL RETORNO SAO                                            PECA                                                                            73202010000000020000000000000000112181
2271 00001699491    43807239000180278077680110   2024012650642K99 A001 PEDAL ESQ.COMP.                                                   PECA                                                                            87141000000000010000000000000004106358
2272 00001699601    43807239000180278077680110   2024012650645K99 A001 BRACO COMP.PEDAL ESQUERDO                                         PECA                                                                            87141000000000010000000000000003494470
2273 00001389961    04012043000148063001667      2024020351400K99 A011 M1 CJ.AMORT.DIANT.DIR.                                            PECA                                                                            87141000000000010000000000000047887352
2274 00001389961    04012043000148063001667      2024020351500K99 A011 M1 CJ.AMORT.DIANT.ESQ.                                            PECA                                                                            87141000000000010000000000000046389421
2275 00001481341    62430194000112336177074113   2023121552101K99 A000 PARAF.ARTIC.GARFO TRAS.                                           PECA                                                                            73181500000000010000000000000002415469
2276 00000408194    10763773000345461067039110   2024010852111K99 A000 AA TRAVESSA GARFO TRASEIRO BRT                                    PECA                                                                            87141000000000010000000000000024981702
2277 00000755511    10310057000140063005905      2024020152114K99 A000 GUIA A MANGUEIRA FREIO TRAS.                                      PECA                                                                            87141000000000010000000000000000211450
2278 000014739915   05541925000163063002302      2024020252121K99 A000 H1 TUBO DIREITO                                                   PECA                                                                            87141000000000010000000000000008650449
2279 000014739915   05541925000163063002302      2024020252126K99 A000 H1 TUBO ESQUERDO                                                  PECA                                                                            87141000000000010000000000000008650449
2280 00002635511    61014585000193105446355110   2024011052141K99 A000 BUCHA ARTIC.GARFO TRAS.                                           PECA                                                                            87141000000000010000000000000004225179
2281 00001043611    57077026000155111763020118   2024010452145K99 A000 H1 LIMITADOR FREIO                                                PECA                                                                            87141000000000010000000000000001700772
2282 00001043731    57077026000155111763020118   2024010452151K99 A000 H1 PLACA FINAL                                                    PECA                                                                            87141000000000020000000000000006378955
2283 00001043611    57077026000155111763020118   2024010452165K99 A000 H1 SUPTE.GUIA CORRENTE                                            PECA                                                                            87141000000000010000000000000000980047
2284 00000756171    10310057000140063005905      2024020352171KR6 0003 DB ARRUELA GUIA TRAS. MAO                                         PECA                                                                            73182200000000020000000000000000133743
2285 00001387971    04012043000148063001667      2024013052400K99 B010 M1 CONJ.AMORTECEDOR TRASEIRO                                      PECA                                                                            87141000000000010000000000000042919083
2286 000014743215   05541925000163063002302      2024020352461K99 A000 DA BRACO AMORT. NH-B78M PT                                        PECA                                                                            87141000000000010000000000000018374886
2287 00001043621    57077026000155111763020118   2024010452462KPS 9000 BUCHA A BRACO AMORTECEDOR                                         PECA                                                                            87141000000000010000000000000001112212
2288 000014732515   05541925000163063002302      2024013152471K99 A001 HASTE CONEX.AMORT. NH-B78M PT                                     PECA                                                                            87141000000000010000000000000019049263
2289 00002635461    61014585000193105446355110   2024011052472K99 A000 BUCHA HASTE AMORT.                                                PECA                                                                            73182900000000010000000000000001965199
2290 000014739115   05541925000163063002302      2024020253100K99 A000 AB TUBO GUIDAO BRUTO POL                                          PECA                                                                            87141000000000010000000000000011288987
2291 00002116891    04414488000154063002418      2024020653131KBB 9500 AA SUPTE.SUP.GUIDAO S/PINT MTF                                    PECA                                                                            87141000000000020000000000000000464032
2292 00006390462    84501873000178063002558      2024020553141K99 A000 TUBO MANOPLA NATURAL                                              PECA                                                                            87141000000000010000000000000000328267
2293 000014743515   05541925000163063002302      2024020353167K99 A002 CARCACA SUP.ACELER. NH-105 HC                                     PECA                                                                            87141000000000010000000000000001643282
2294 000014743515   05541925000163063002302      2024020353168K99 A002 CARCACA INF.ACELER NH-105 HC                                      PECA                                                                            87141000000000010000000000000001869385
2295 00000721492    23007560000173063000741      2024020153169K99 A000 APOIO DESLIZADOR CABO ACEL.                                       PECA                                                                            87141000000000010000000000000000241750
2296 00002114721    04414488000154063002418      2024020253172K99 A001 SUPTE.ALAVANCA ESQ. ALOD                                          PECA                                                                            87141000000000010000000000000001265771
2297 00002114721    04414488000154063002418      2024020253174KCE 6705 FIXADOR ESQ.SUPTE.ALAVANCA                                        PECA                                                                            84714100000000010000000000000000446149
2298 00000722172    23007560000173063000741      2024020653177KPS 7301 CAPA ALAVANCA ESQ. REFLECT                                        PECA                                                                            87141000000000010000000000000000267477
2299 00002116081    04414488000154063002418      2024020353178KPS 9004 ALAV.ESQ. ALOD MTF                                                PECA                                                                            87141000000000010000000000000001114363
2300 000014746915   05541925000163063002302      2024020553200K99 A000 DA COLUNA DIR.COMP. NH-B78M PT                                    PECA                                                                            87141000000000010000000000000019177304
2301 00001801831    43803725000120110400011110   2024010253229KPS 9001 DA CJ.PORCA COLUNA DIRECAO SAO                                    PECA                                                                            73181600000000010000000000000001241253
2302 00001389981    04012043000148063001667      2024020553230K99 A003 MESA SUP.GUIDAO NH-109M-S                                         PECA                                                                            87141000000000010000000000000006616008
2303 00001802871    43803725000120110400011110   2024010861104KPS 7603 BUCHA PARALAMA                                                    PECA                                                                            73182900000000040000000000000000151012
2304 00000578341    03977372000160115949615110   2023122661302KRE E300 PROTETOR VISOR SAO                                                PECA                                                                            40169990000000010000000000000000092072
2305 000002008755   28938475000142796649756113   2024011861302K99 A000 DA SUPTE.VISOR FRONTAL NH-1 SAO                                   PECA                                                                            87141000000000010000000000000002056894
2306 00000578561    03977372000160115949615110   2024010261303KPS B700 PROTETOR VISOR SAO                                                PECA                                                                            40169990000000020000000000000000098807
2307 00004062421    02499629000153063002493      2024013061310K99 B000 REFORCO COMP.VISOR FRONTAL                                        PECA                                                                            87141000000000010000000000000002106870
2308 00004062421    02499629000153063002493      2024013061318K99 B000 SUPTE.COMP.INFERIOR FAROL                                         PECA                                                                            87141000000000010000000000000002505852
2309 00004457671    57593253000567063001454      202402037710AK99 A000 PLACA INFERIOR COMP.                                              PECA                                                                            87141000000000010000000000000002648632
2310 00001734542    83538215000198250581744      2023121980101165 0002 BORRACHA COXIM PARAL.TRAS. SAO                                    PECA                                                                            40161090000000020000000000000000052594
2311 00001734582    83538215000198250581744      2023121983601MB0 0001 DA BORRACHA A TAMPA LAT. SAO                                      PECA                                                                            40169990000000020000000000000000060145
2312 00006379632    84501873000178063002558      2024013184103392 0002 TAMPA TUBO D.19                                                   PECA                                                                            87141000000000020000000000000000103605
2313 000001981455   28938475000142796649756113   2024011084707KWT 9002 PORCA PRESILHA 6MM                                                PECA                                                                            73181600000000020000000000000000108966
2314 00000161692    20846063000170063008971      2024020686101K99 A300 FA MARCA HONDA 75MM T1                                            PECA                                                                            39199020000000010000000000000000214792
2315 00000161692    20846063000170063008971      2024020686102K99 A000 FA MARCA HONDA 55MM T1                                            PECA                                                                            39199010000000010000000000000000174265
2316 000001616502   20846063000170063008971      2024020686171K99 A300 FA FAIXA CAREN.DIR.TQ. T1                                         PECA                                                                            39199010000000010000000000000005811550
2317 000001616502   20846063000170063008971      2024020686172K99 A300 FA FAIXA CAREN.ESQ.TQ. T1                                         PECA                                                                            39199010000000010000000000000005811550
2318 00003085527    01111039000491206086103118   2024012587125GFP B011 ETIQUETA IDENTIFICACAO SAO                                        PECA                                                                            39199020000000010000000000000000020154
2319 00003078177    01111039000491206086103118   2024011187507MBZ B200 ETIQ. PRECAUCAO CORRENTE SAO                                      PECA                                                                            39199010000000010000000000000000076567
2320 00003133641    56993868000194388084643116   2024010389010K99 B000 JOGO FERRAMENTA                                                   PECA                                                                            82060000000000010000000000000001966413
2321 00000486641    57486326000198442001142119   2024010590001KPH 6901 PARAF.FLANGE NSHF 6X30 SAO                                        PECA                                                                            73181500000000210000000000000000049622
2322 00001939751    47715610000135581010121118   2023121890001K31 9001 PARAF.FLANGE 6X120 SAO                                            PECA                                                                            73181500000000020000000000000000291687
2323 00001801951    43803725000120110400011110   2024010490001961 6702 DA BUCHA SUPORTE PLACA SAO                                        PECA                                                                            73182900000000020000000000000000109207
2324 00000486331    57486326000198442001142119   2024010490002K31 9002 PARAF.FLANGE 5X18 SAO                                             PECA                                                                            73181500000000020000000000000000020749
2325 00003154921    44068211000131669182200114   2024011190003KFG 0002 DB PARAF.TAMPA ESQ.                                               PECA                                                                            73181500000000020000000000000000156977
2326 00003148941    44068211000131669182200114   2023122290003KVS 9001 PARAF.SEXT.6X20 SAO                                               PECA                                                                            73181500000000010000000000000000050485
2327 00000486331    57486326000198442001142119   2024010490004GHB 6401 DA PARAF.FLANGE NSHF 6X18                                         PECA                                                                            73181500000000020000000000000000037922
2328 00000486291    57486326000198442001142119   2024010490004GHB 6502 DA PARAF.FLANGE NSHF 6X20                                         PECA                                                                            73181500000000020000000000000000041601
2329 00000486331    57486326000198442001142119   2024010490004GHB 6602 DA PARAF.FLANGE NSHF 6X22                                         PECA                                                                            73181500000000020000000000000000043666
2330 00000486651    57486326000198442001142119   2024010590004GHB 6701 DA PARAF.FLANGE NSHF 6X25 SAO                                     PECA                                                                            73181500000000020000000000000000045964
2331 00006738481    61526836000976190003510115   2024010890005K15 9004 PARAF.PHILLIPS 6X6 SAO                                            PECA                                                                            73181500000000010000000000000000034825
2332 00001481291    62430194000112336177074113   2023121590010ML0 7203 PARAF.FLANGE 6X20 SAO                                             PECA                                                                            73181500000000010000000000000000269584
2333 00001939881    47715610000135581010121118   2023121990022KRM 8403 DC PARAF.POSIC.TAMBOR SELETOR SAO                                 PECA                                                                            73181500000000010000000000000000109115
2334 00001481291    62430194000112336177074113   2023121590023MA6 0002 PARAFUSO FLANGE 12X45 SAO                                         PECA                                                                            73181500000000010000000000000000681605
2335 00001481381    62430194000112336177074113   2023121590032K31 9001 PRISIONEIRO 10X182 SAO                                            PECA                                                                            73181500000000040000000000000000814804
2336 00001481311    62430194000112336177074113   2023121590048K31 9000 PARAF.VEDACAO 20MM                                                PECA                                                                            84099190000000010000000000000000267345
2337 00006738451    61526836000976190003510115   2024010890083K31 9001 PARAF.FLANGE 6MM SAO                                              PECA                                                                            73181500000000020000000000000000038444
2338 00008436615    61096996000175407068040112   2024010990084KPS 9005 TAMPA 14MM SAO                                                    PECA                                                                            73181500000000010000000000000000260618
2339 00000486311    57486326000198442001142119   2024010490084041 0003 DC PARAF.FIX.COROA TRASM. SAO                                     PECA                                                                            73181500000000020000000000000000040273
2340 00006738481    61526836000976190003510115   2024010890085K31 9000 PARAFUSO ALLEN 6MM SAO                                            PECA                                                                            73181500000000060000000000000000048873
2341 00002116931    04414488000154063002418      2024020690087KRM 8401 TAMPA 32MM MTF                                                    PECA                                                                            84099190000000010000000000000000472137
2342 00001481291    62430194000112336177074113   2023121590101KPS 9001 PARAF.FLANGE 10X100 SAO                                           PECA                                                                            73181500000000010000000000000000760750
2343 00001802921    43803725000120110400011110   2024010890101KW8 9003 EIXO PEDAL FREIO TRAS. SAO                                        PECA                                                                            87141000000000010000000000000001793181
2344 00001481301    62430194000112336177074113   2023121590101K99 A001 PARAF.FLANGE 8X22                                                 PECA                                                                            73181500000000010000000000000000131403
2345 00001939881    47715610000135581010121118   2023121990102KRE 7100 PARAF.C/ARRUELA 5X14 SAO                                          PECA                                                                            73181500000000010000000000000000041763
2346 00001939751    47715610000135581010121118   2023121890102KVK 9000 PARAF.FLANGE 8X38                                                 PECA                                                                            73181500000000010000000000000000230086
2347 00001481371    62430194000112336177074113   2023121590102KVS J000 PARAF.SEXT.6X20                                                   PECA                                                                            73181500000000020000000000000000158087
2348 00001481301    62430194000112336177074113   2023121590102K99 A000 PARAF.FLANGE 10X128                                               PECA                                                                            73181500000000010000000000000000682956
2349 00001481301    62430194000112336177074113   2023121590103K99 A001 PARAF.FLANGE 8X38                                                 PECA                                                                            73181500000000010000000000000000171863
2350 00001481301    62430194000112336177074113   2023121590103MEB 6702 PARAF.FLANGE DR8X18                                               PECA                                                                            73181500000000040000000000000000120835
2351 00001940091    47715610000135581010121118   2023122090105K99 A000 PARAF.SUPORTE PEDAL                                               PECA                                                                            73181500000000040000000000000000244721
2352 00001481311    62430194000112336177074113   2023121590106K99 A001 PARAF.ALLEN 6X14 SAO                                              PECA                                                                            73181500000000020000000000000000051452
2353 00001480371    62430194000112336177074113   2023121290106MM4 0003 PARAF.ALLEN 6X14                                                  PECA                                                                            73181500000000020000000000000000063509
2354 00006738481    61526836000976190003510115   2024010890107GN1 0104 PARAF.ARTIC.CAVALETE LAT. SAO                                     PECA                                                                            73181500000000010000000000000000375254
2355 00001481301    62430194000112336177074113   2023121590107K99 A000 PARAFUSO FLANGE 10X52                                             PECA                                                                            73181500000000010000000000000000395804
2356 00001481301    62430194000112336177074113   2023121590109K99 A000 PARAF.FLANGE 10X95                                                PECA                                                                            73181500000000010000000000000000516659
2357 00001481301    62430194000112336177074113   2023121590110K99 A000 PARAF.FLANGE 10X150                                               PECA                                                                            73181500000000010000000000000000750443
2358 00003148941    44068211000131669182200114   2023122290111KVS B500 PARAF.ALLEN 5X9 SAO                                               PECA                                                                            73181500000000020000000000000000044682
2359 00001940201    47715610000135581010121118   2023122190111162 0005 DA PARAF.FLANGE 6MM                                               PECA                                                                            73181500000000060000000000000000083698
2360 00001481381    62430194000112336177074113   2023121590115KPS 9001 PARAF.PAN 5X8 SAO                                                 PECA                                                                            73181500000000020000000000000000089290
2361 00001940101    47715610000135581010121118   2023122090119KVS 6001 PARAF.FLANGE 6MM SAO                                              PECA                                                                            73181500000000020000000000000000133464
2362 00001939771    47715610000135581010121118   2023121890120KPS 9002 PARAFUSO PHIL.PANELA 4X32 SAO                                     PECA                                                                            73181500000000010000000000000000052216
2363 00001940091    47715610000135581010121118   2023122090121KPS 9002 PARAFUSO PHIL.PANELA 4X45 SAO                                     PECA                                                                            73181500000000010000000000000000069232
2364 00001481301    62430194000112336177074113   2023121590126K99 A000 PARAFUSO ESPECIAL 6MM                                             PECA                                                                            73181500000000040000000000000000053368
2365 00001481301    62430194000112336177074113   2023121590126MEN A700 PARAFUSO ESPECIAL 6MM                                             PECA                                                                            73181500000000030000000000000000113110
2366 00001480181    62430194000112336177074113   2023121290128KBP 9002 PARAFUSO ALLEN 8X16                                               PECA                                                                            73181500000000010000000000000000091053
2367 00001481301    62430194000112336177074113   2023121590128KPE 9002 PARAF.ALLEN 12X64 SAO                                             PECA                                                                            73181500000000010000000000000000898527
2368 00001939881    47715610000135581010121118   2023121990131KPS 9002 PARAF.FLANGE 8 X 40 SAO                                           PECA                                                                            73181500000000010000000000000000363868
2369 00000486321    57486326000198442001142119   2024010490131KRM 8404 DC PARAFUSO DRENO 12MM SAO                                        PECA                                                                            73181500000000010000000000000000133759
2370 00001481301    62430194000112336177074113   2023121590181K99 A000 PARAF.FLANGE 10X113                                               PECA                                                                            73181500000000020000000000000000614058
2371 00001802951    43803725000120110400011110   2024010890201KYJ 9000 DA PORCA ESPECIAL 16MM                                            PECA                                                                            73181600000000010000000000000000614519
2372 00001802881    43803725000120110400011110   2024010890235K31 9001 PORCA TRAVA 16MM SAO                                              PECA                                                                            73181600000000010000000000000000614275
2373 00001803151    43803725000120110400011110   2024010890304KRM 8602 PORCA COLUNA DIRECAO SAO                                          PECA                                                                            73181600000000010000000000000000458770
2374 00008430295    61096996000175407068040112   2023122690308KRM 8601 PORCA CEGA 8MM SAO                                                PECA                                                                            73181600000000020000000000000000281407
2375 000001967255   28938475000142796649756113   2024010490311KVS F301 DA PORCA TRAVA 6MM SAO                                            PECA                                                                            73181600000000010000000000000000106468
2376 00001043611    57077026000155111763020118   2024010490322KRM 8601 PORCA RECARTILHADA SAO                                            PECA                                                                            73181600000000010000000000000000327070
2377 00003103554    59108837000100286002300119   2024010990401K31 9001 ARRUELA 10MM SAO                                                  PECA                                                                            73182200000000050000000000000000104173
2378 00003102294    59108837000100286002300119   2024010590407K31 9001 ARRUELA PRESSAO 26MM SAO                                          PECA                                                                            73182200000000010000000000000000121230
2379 00005222931    68032648000264312025159110   2024010990407259 0007 ARRUELA VEDACAO DRENO SAO                                         PECA                                                                            76161000000000010000000000000000019407
2380 00005219131    68032648000264312025159110   2024010590417KRM 8403 ARRUELA ENCOSTO TAMBOR SAO                                        PECA                                                                            73182200000000010000000000000000034910
2381 00005219131    68032648000264312025159110   2024010590434KPS 9004 ARRUELA 16MM SAO                                                  PECA                                                                            73182200000000020000000000000000328639
2382 00003102294    59108837000100286002300119   2024010590434K31 9000 ARRUELA 19MM SAO                                                  PECA                                                                            73182200000000010000000000000000883564
2383 00003102294    59108837000100286002300119   2024010590443KSS B301 ARRUELA VEDACAO 10MM SAO                                          PECA                                                                            74152100000000010000000000000000105441
2384 00003102294    59108837000100286002300119   2024010590457KRM 8404 ARRUELA 14MM SAO                                                  PECA                                                                            73182200000000010000000000000000046106
2385 00005222931    68032648000264312025159110   2024010990503KWG 6001 ARRUELA COLUNA DIRECAO SAO                                        PECA                                                                            73182200000000010000000000000000080410
2386 00008441395    61096996000175407068040112   2024011290503K99 A000 ESPACADOR BOMBA COMB.                                             PECA                                                                            73182900000000040000000000000000228829
2387 00005219131    68032648000264312025159110   2024010590504KPF 9001 ARRUELA 12.5X26X4.3 SAO                                           PECA                                                                            73182200000000010000000000000000521722
2388 00000467152    02998356000191063002574      2024020190504K99 A000 BUCHA DIANT.TANQUE MAO                                            PECA                                                                            73182900000000010000000000000000481485
