004337168000148***********revisar..                                                                       MOTOCICLETA HONDA POP 110i DE 7,9CV E 109,1CC ANO MOD 2024/FAB 2024 A GASOLINA. 87141000Pe網                                                                            00000009230700000000000000000000000000000000N                               2F
10001MOTOCICLETA HONDA POP 110i DE 7,9CV E 109,1CC ANO MOD 2024/FAB 2024 A GASOLINA. 000000000957000K62 AB0NKZA    
20001000015213010   04337168002515062002562      20240118A2504PLT 0226            RESINA PP ALTO BRILHO                                  Quilo                                                                           39021010000000016550000000000011925400
2000200000812215    60435351004730062002562      20240405A2628ESP 0102            POLIOL FORMULADO                                       Quilo                                                                           39072939000000006840000000000020890000
2000300000822505    60435351004730062002562      20240326A2628ESP 0103            ISOCIANATO FORMULADO                                   Quilo                                                                           39093100000000002160000000000028180000
2000400006522791    47254461000154062002562      20240402A2710PLV 0158            NAPA H-B38(NH-1)                                       Metro                                                                           59031000000000005850000000000036810200
2000500003281972    00000000000000               20240819A3005BOB 0301            BOBINA 1.0X133             SAO                         Quilo                                                                           72083690000000000980000000013688312400
2000600000984933    08470524000158063002302      20240405A3005BOB 0344            BOBINA 2.0X150             MAO                         Quilo                                                                           72111900000000000060000000000008718936
2000700000984953    08470524000158063002302      20240405A3005BOB 0509            BOBINA 1,4 X 128          MAO                          Quilo                                                                           87141000000000016500000000000010135423
2000800000984963    08470524000158063002302      20240405A3005BOB 0510            BOBINA 1,4 X 98          MAO                           Quilo                                                                           87141000000000015500000000000010135428
2000900000983643    08470524000158063002302      20240401A3005BOB 0626            BOBINA 1,06X135                                        Quilo                                                                           72122090000000001280000000000010011410
2001000000984183    08470524000158063002302      20240401A3005BOB 0627            BOBINA 2X107                                           Quilo                                                                           72122090000000000700000000000009763125
20011000011893115   05541925000163062002562      20201203A3005BOB 0664            BOBINA 1,50X1200                                       Quilo                                                                           72122010000000006500000000000004050600
2001200004952641    00000000000000               20240813A3005BOB 0676            BOBINA 2,00X1050                                       Quilo                                                                           72122010000000022860000000007903856600
2001300001266221    01535521000106062002562      20240403A3005BOB 0821            BOBINA 1.06X400                                        Quilo                                                                           72122090000000010450000000000013582296
2001400001266881    01535521000106062002562      20240405A3005BOB 0822            BOBINA 0.80X440                                        Quilo                                                                           72122090000000010350000000000013582280
2001500008192431    60894730006308063002302      20240328A3005BOB 0839            BOBINA 2X1050                                          Quilo                                                                           72119090000000011340000000000006498188
2001600003282010    33390170000421063002302      20240327A3005BOB 9900 323        BOBINA 1,20 X 159                                      Quilo                                                                           72122090000000002060000000000013601977
2001700003254450    33390170000421063002302      20240208A3005BOB 9900 409        BOBINA 1 X 32                                          Quilo                                                                           72122010000000000070000000000013539775
2001800003290880    33390170000421063002302      20240403A3005BOB 9900 452        BOBINA 1.20X96                                         Quilo                                                                           72123000000000002210000000000013632490
2001900003268840    33390170000421063002302      20240307A3005BOB 9900 465        BOBINA 1.2X224                                         Quilo                                                                           72123000000000001480000000000014152731
2002000003292460    33390170000421063002302      20240404A3005BOB 9902 309        BOBINA 1,20 X 98                                       Quilo                                                                           72122090000000000810000000000013661211
2002100003282140    33390170000421063002302      20240325A3105CHP 9900 28         CHAPA DE A큞 INOX, SIMPLESMENTE LAMINADA A FRIO, GRAU DQuilo                                                                           72202090000000015430000000000014284554
2002200001029991    52555711000126062002562      20220829A3813SIN 0002            PO DE FERRO HFA-1508       SAO                         Quilo                                                                           72052990000000000370000000000010044028
2002300001266611    01535521000106063002302      20240404A3905BLK 0255            BLANK 0.80X170X600                                     Quilo                                                                           72119090000000006390000000000011566375
2002400001368281    05304298000147062002562      20240403A4015LIN 0118            LINGOTE ALUMINIO HD2       SAO                         Quilo                                                                           76012000000000015640000000000012629548
2002500005792491    15373395000145062002562      20240404B0101ESM 0013            ESM PU PRETO (NH1)         SAO                         Litro                                                                           32081010000000000030000000000022310700
2002600001130561    22805436000190062002562      20240328B0101TIN 0008            TINTA SATURNO VINIL.FOSCA                              Litro                                                                           32089010000000000030000000000095000000
2002700005754401    15373395000145062002562      20240404B0401OIL 0004            DILUENTE PESADO (TINTA)    SAO                         Litro                                                                           38140090000000000400000000000009802200
2002800005768221    15373395000145062002562      20240405B0501CAT 0001            CATALIZADOR                SAO                         Litro                                                                           38249931000000000020000000000048313500
2002900005792531    15373395000145062002562      20240404B0701CUL 0002            CULMINAL PRATA NH-109      SAO                         Litro                                                                           32089010000000000670000000000027109500
2003000002147267    61105060000163062002562      20210806B1201COL 0001            COLA BRASCOPLAST UNIVERSAL SAO                         Quilo                                                                           35069190000000000010000000000021780520
20031000000001610   04337168002515062002562      20240621B1805GRA 0100            GRAMPO FIX. CAPA ASSENTO   SAO                         Unidade                                                                         83052000000000900000000000000000004800
2003200005540991    33000092003850062002562      20240404B2617OLE 0102            OLEO LUBRIFICANTE PARA MOTOR DE IGNICAO POR CENTELHA DAMililitro                                                                       27101932000011400000000000000000011990
2003300005793971    15373395000145062002562      20240405B2622DIL 0100            DILUENTE PU TURBO METALICO SAO                         Litro                                                                           38140090000000000010000000000011559900
2003400005335411    15373395000145062002562      20230410B2622DIL 0101            DILUENTE PU TURBO SOLIDO   SAO                         Litro                                                                           38140090000000000020000000000018553500
20035000054948627   04337168000148063002302      20170620B2623DIL 0100            DILUENTE ESP.TURBOI(P/PRIMER)                          Litro                                                                           38140090000000000270000000000010680000
2003600006630670    61074506000130063002302      20240403B2811MIG 0111            ARAME MIG INOX SUS 308 1,0MM                           Quilo                                                                           83119000000000000940000000000063140000
2003700006630660    61074506000130063002302      20240403B2811MIG 0112            ARAME MIG INOX 430                                     Quilo                                                                           83119000000000000030000000000048070000
2003800006625480    61074506000130062002562      20240401B2811MIG 0118            ARAME MIG 1,0MM                                        Quilo                                                                           72292000000000002800000000000012390000
2003900006510200    61074506000130062002562      20240322B2811MIG 0119            ARAME MIG 1,2MM                                        Quilo                                                                           83119000000000000080000000000011260000
2004000006625500    61074506000130063002302      20240401B2811MIG 0121            ARAME MIG 1,2MM (BARRICA)                              Quilo                                                                           83119000000000000810000000000011490000
2004100006625490    61074506000130062002562      20240401B2811MIG 0122            ARAME MIG 1,0MM (BARRICA)                              Quilo                                                                           72292000000000000930000000000012620000
20042000017821121   60561719001529063002302      20210813B3809TIN 0109            TINTA PO NH1                                           Quilo                                                                           32081010000000000280000000000034250000
20043000019749521   60561719001529063002302      20240404B3809TIN 0110            TINTA PO NH105                                         Quilo                                                                           32081010000000000060000000000038380000
2004400000746043    43633601000144063002302      20240403B3829CLO 0100            CLORETO NIQUEL(SOLIDO)   SAO                           Grama                                                                           28273500000000011000000000000000052860
2004500000553623    43633601000144063002302      20210809B3829SUL 0100            SULFATO NIQUEL(SOLIDO)   SAO                           Grama                                                                           28332400000000305230000000000000047820
2004600001220751    53945341000104063002302      20240328B3840SAL 0101            SAL CROMO HCR 843 PLUS     SAO                         Grama                                                                           28191000000000035000000000000000039200
2004700003116667    00000000000000               20240813D0009GCE 9000 R          PROTETOR, TAMPA MOTOR (NPD)                            Unidade                                                                         39199010000000010000000000000010200000
20048000016621910   04337168002515062002562      20240311D0009KSS 9000 DA         PROTETOR PAPELAO                                       Unidade                                                                         48195000000000020000000000000000249400
20049000016797110   04337168002515062002562      20240318D0010GCE 9001 R          PROTETOR PEDAL  (NPD)                                  Unidade                                                                         73269090000000010000000000000000800500
20050000017025010   04337168002515062002562      20240326D0017KGA 9001 R          PROTETOR DA MANOPLA  (NPD)                             Unidade                                                                         73269090000000002000000000000001120000
20051000016916010   04337168002515062002562      20240322D0018KGA 9001 R          PROTETOR TUBO PEDAL (NPD)                              Unidade                                                                         73269090000000020000000000000000323900
20052000016916010   04337168002515062002562      20240322D0018NPD 9000            PROTECTOR DA ALCA TRASEIRA                             Pe網                                                                            73269090000000020000000000000000542400
2005300000484367    01111039000149062002562      20240401D0022NPD 9000            ETIQUETA EMBALAGEM       NPD                           Pe網                                                                            48211000000000010000000000000000052600
2005400000682031    34582973000106062002562      20240405D0042NPD 9000            FOLHA ISOMANTA 330X300X5,0                             Unidade                                                                         39209990000000010000000000000000420000
20055000000648614   45985371005339062002562      20240403D0204FIT 0117            FITA IMPRESSO 50X100MM                                 Metro                                                                           48211000000000028000000000000000307100
2005600000682031    34582973000106062002562      20240405D0704FOL 0113            FOLHA ISOMANTA 120X120X5MM                             Unidade                                                                         39202090000000010000000000000000090000
2005700000682031    34582973000106062002562      20240405D1004SAC 0114            SACO POLIBOL 200X250                                   Unidade                                                                         39232990000000020000000000000000160000
2005800000410941    34553677000179062002562      20240403D1802SAC 0007            SACO PLASTICO LISO 18X27                               Unidade                                                                         39232190000000020000000000000000103100
2005900001082591    07519331000181062002562      20240404D2203MAN 1290            MANUAL PROP.POP 110I       MAO                         Unidade                                                                         49111090000000010000000000000001410000
2006000000484077    01111039000149062002562      20240326D2403ETI 0134            ETIQ.TAG 7PT 60MM X 41MM                               Unidade                                                                         39191010000000010000000000000000084530
2006100000483987    01111039000149062002562      20240322D2403ETI 0142            ETIQ.ADES.BRANCA 60MMX27MM                             Unidade                                                                         39191090000000010000000000000000082800
2006200002147371    04414488000154062002562      2024040511341K62 B000 AD         TP LT.ESQ.MOTOR(REBAR) MTF                             Pe網                                                                            84099190000000010000000000000021300000
20063000011336810   04337168002515062002562      2023080911346KTR 9402            PRESILHA ESTAMPADA  "A" DE FIXA츒 DA FIA츒 DO SENSOR Pe網                                                                            73269090000000030000000000000000414200
2006400002103251    31303127000103062002562      2024040511361K62 B001 H1         TAMPA ESQ.TRAS.(NH1)COMP.  MAO                         Pe網                                                                            84099190000000010000000000000007570000
2006500005297681    68032648000264062002562      2024040511363KWW 7402 H1         GUIA CORRENTE TRANSMISSAO                              Pe網                                                                            87141000000000010000000000000001927600
2006600000298661    04777862000186062002562      2024040511394K58 TC01            JUNTA CARCACA DIR.       LEAKL                         Pe網                                                                            84842000000000010000000000000002022100
2006700000298661    04777862000186062002562      2024040511395K58 TC01            JUNTA CARCACA ESQ.       LEAKL                         Pe網                                                                            84842000000000010000000000000000221600
2006800000298661    04777862000186062002562      2024040512191K58 TC01            JUNTA CILINDRO           LEAKL                         Pe網                                                                            73269090000000010000000000000000218500
2006900000298661    04777862000186062002562      2024040512251KWB 6011 M1         JUNTA CABECOTE                                         Pe網                                                                            73269090000000010000000000000002238900
2007000002147241    04414488000154062002562      2024040512310KWW 7401            TAMPA CABECOTE COMP.                                   Pe網                                                                            84099190000000010000000000000011430000
20071000013598310   04337168002515062002562      2023103013101K03 H101            PISTAO                                                 Pe網                                                                            84099120000000010000000000000011518100
20072000000040855   28938475000142062002562      2021072113115GN5 9103            PRESILHA PINO PISTAO 13MM  SAO                         Pe網                                                                            73182400000000020000000000000000017698
2007300003079331    04944068000180062002562      2024040513311K62 B001 BB         VIRABREQUIM DIR(ACAB PRIM)MSH                          Pe網                                                                            84099190000000010000000000000038660000
2007400003079331    04944068000180062002562      2024040513321K62 B000 BB         VIRABREQUIM, LADO ESQUERDO, PARA MOTOR DE IGNI츒 POR CPe網                                                                            84831019000000010000000000000035240000
2007500000264484    10963007000162062002562      2017022314311KWS 9001 H1         COROA VIRABREQUIM                                      Pe網                                                                            84839000000000010000000000000007045000
2007600005330271    68032648000264062002562      2024062114500KZV J010            TENSOR COMP.CORR.COMANDO                               Pe網                                                                            84099190000000010000000000000004810035
20077000000213727   04337168000148080003753      2024072314531K03 C201            BUCHA TENSOR CORR.COMAN.                               Pe網                                                                            73182900000000010000000000000002109100
20078000013906610   04337168002515062002562      2023111114541GB4 6813            MOLA, TENSOR              SAO                          Pe網                                                                            73202010000000010000000000000000235900
2007900008497365    61096996000175062002562      2024040314771GB4 6806 DA         PRATO DA MOLA DO COMANDO DE VALVULA DE ADMISSAO, DE ACOPe網                                                                            84099190000000020000000000000000526566
2008000000471612    02998356000191062002562      2024040515431GFP 9000            ROTOR FILTRO DE OLEO   SOLTECO                         Pe網                                                                            84219199000000010000000000000031440000
2008100000298611    04777862000186062002562      2024040415439K62 BA00            JUNTA ROTOR FILTRO OLEO                                Pe網                                                                            48239099000000010000000000000000053800
2008200002841091    02672357000141062002562      2024040515441GFP 9000            TAMPA FILTRO DE OLEO                                   Pe網                                                                            84219199000000010000000000000003360000
2008300001068441    57077026000155062002562      2024062415441KCS 6503 DC         GUIA OLEO               SAO                            Pe網                                                                            84219999000000010000000000000002061740
20084000000043655   28938475000142062002562      2021072015446107 0003            MOLA GUIA OLEO             SAO                         Pe網                                                                            73202010000000010000000000000000123801
20085000014929715   05541925000163062002562      2024040315661GFP 9000 DB         PLACA SEPAR.OLEO           HC                          Pe網                                                                            84099190000000010000000000000002766600
2008600002102981    31303127000103062002562      2024040516305K62 B000            TAMPA MODULO ACELERADOR                                Pe網                                                                            87141000000000010000000000000002230000
2008700000885824    04161047000198062002562      2024040516400K62 BA10 M1         MODULO DE ACELERA츒 DO MOTOR DE INGNI츒 POR CENTELHA Pe網                                                                            84099190000000010000000000000033450000
2008800000885854    04161047000198062002562      2024040516700K62 B015 M1         CONJ.UNID.BOMBA COMB.      MAO                         Pe網                                                                            84133010000000010000000000000085340000
2008900000885894    04161047000198062002562      2024040517100K62 BA00            CONJ.TUBO COLETOR                                      Pe網                                                                            84099190000000010000000000000060500000
20090000014936915   05541925000163062002562      2024040517200K62 B001 DA         FILTRO DE ENTRADA DE AR PARA MOTOR DE IGNICAO POR CENTEPe網                                                                            84213100000000010000000000000059391800
20091000000008315   05541925000163080003745      2024070817211KWG B002            ELEMENTO FILTRO DE AR                                  Pe網                                                                            84219999000000010000000000000004724400
2009200000835471    57014862000948063002302      2022042517212GFP 9001            TELA COMP. CHASSI         SAO                          Pe網                                                                            87141000000000010000000000000004260000
2009300002101741    31303127000103063002302      2024040417220K62 B000            CARCACA FILTRO AR                                      Pe網                                                                            87141000000000010000000000000003790000
2009400004026551    04413977000191063002302      2024040517227HC0 0000 DA         TUBO 11 X 15 X 45          MAO                         Pe網                                                                            87141000000000010000000000000000730000
2009500002101741    31303127000103063002302      2024040417230K62 B000            TAMPA FILTRO AR                                        Pe網                                                                            87141000000000010000000000000002350000
2009600000733942    23007560000173063002302      2024040517240K62 B000            DUTO AR ADM.                                           Pe網                                                                            87141000000000010000000000000002570000
20097000000051320   05541925000244063002302      2023021017256K62 B000 DA         PRESILHA 42 TUBO RESP.                                 Pe網                                                                            87141000000000010000000000000003671200
2009800004025051    04413977000191063002302      2024040417311K62 B000            RESONADOR                                              Pe網                                                                            87141000000000010000000000000001570000
2009900004141351    02499629000153062002562      2024040517511K62 B000 H1DA       GUIA NIVEL COMB.           MAO                         Pe網                                                                            87141000000000010000000000000002300000
20100000016668210   04337168002515062002562      2024031317515K62 B000            BUCHA TANQUE COMB.                                     Pe網                                                                            73182900000000020000000000000000968100
20101000015269610   04337168002515062002562      2024011917517GGL J003 DA         SUPORTE ESTAMPADO DA BOMBA DE COMBUSTIVEL DA MOTOCICLETPe網                                                                            73269090000000020000000000000001156500
20102000016797910   04337168002515062002562      2024031817572GHB 6031 M3         ANEL ELAST.BOMBA COMBUSTIVEL                           Pe網                                                                            40169300000000010000000000000001493300
2010300002102981    31303127000103062002562      2024040517575K62 B000            TAMPA BOMBA COMBUSTIVEL                                Pe網                                                                            87141000000000010000000000000003930000
20104000014938815   05541925000163062002562      2024040518200K62 BA10            CONJ.ESCAPAMENTO(NH-106)    HC                         Pe網                                                                            87141000000000010000000000000253647400
2010500005299531    68032648000264063002302      2024040518231K62 B000 H1         JUNTA TUBO ESCAP.                                      Pe網                                                                            87141000000000010000000000000003086001
2010600000767451    10310057000140063002302      2024040418300K62 B000 20DA       SUPORTE ESCAPAMENTO                                    Pe網                                                                            87141000000000010000000000000005347500
20107000000144820   05541925000244063002302      2023112818300K62 B000 21         REFORCO ESCAPAM.                                       Pe網                                                                            87141000000000010000000000000003491200
2010800000811790    33390170001827063002302      2024040218300K62 B000 22         TUBO EXTERNO           SAO                             Pe網                                                                            87141000000000010000000000000001960900
2010900004141391    02499629000153063002302      2024040518300K62 B000 23         JUNTA, ESCAPAMENTO COMP.                               Pe網                                                                            87141000000000010000000000000003970000
2011000000751461    46792370000100063002302      202404031831AK62 B000            CJ.SPTE.PROTETOR ESCAPAMENTO                           Pe網                                                                            87141000000000020000000000000001023400
2011100000811430    33390170001827063002302      2024040118310K62 B000 23         TUBO INTERNO                                           Pe網                                                                            87141000000000010000000000000001371600
2011200000812920    33390170001827063002302      2024040118310K62 B000 24         TUBO TRAS.                                             Pe網                                                                            87141000000000010000000000000001524000
2011300000750811    46792370000100063002302      2024040318310K62 B000 27         GANCHO DO PROTETOR EXT.                                Pe網                                                                            87141000000000010000000000000000489805
2011400001816471    43803725000120063002302      2024040518320K62 BA01 XA         BUCHA TUBO ESCAPAMENTO                                 Pe網                                                                            73261900000000010000000000000002045255
2011500000461660    33390170001827063002302      2021073018320K62 9902 AA         TUBO 19,10 X 1,20 X 469                                Pe網                                                                            73064000000000010000000000000006187400
2011600005264661    68032648000264063002302      2024031318355GFP B000 ABDB       GANCHO DO PROTETOR                                     Pe網                                                                            87141000000000010000000000000000320899
2011700002841151    02672357000141062002562      2024040522000K62 B010 M1         CONJ.EMBREAGEM                                         Pe網                                                                            84836011000000010000000000000079830000
20118000000213727   04337168000148080003753      2024072322116KWW 7401            BUCHA EXTERNA EMBREAGEM                                Pe網                                                                            87141000000000010000000000000001865100
20119000016242610   04337168002515062002562      2024022722810K62 B001            ALAVANCA COMP.EMBREAGEM                                Pe網                                                                            84839000000000010000000000000008374800
2012000004140781    02499629000153062002562      2024040522821K62 B000            RECEPTOR CABO EMBREAGEM                                Pe網                                                                            87141000000000010000000000000001840000
2012100000423151    00021622000104062002562      2024040222847GFP 9000            HASTE, ACIONADOR EMBREAG.                              Pe網                                                                            87141000000000010000000000000002194800
2012200003077751    04944068000180062002562      2024040223125K62 B000 AC         BUCHA, ENGR.PRIMARIA MOTORA                            Pe網                                                                            73182900000000010000000000000002980000
20123000007739610   04337168002515062002562      2023032924261121 7423            PINO GUIA GARFO SELETOR                                Pe網                                                                            73182900000000020000000000000000439200
20124000000043055   28938475000142062002562      2021072024263GCE C601            PRESILHA PINO GUIA SELET. SAO                          Pe網                                                                            73170090000000020000000000000000090900
2012500003079171    04944068000180062002562      2024040524301K65 B200            TAMBOR SELETOR                                         Pe網                                                                            84839000000000010000000000000020960000
2012600005297661    68032648000264062002562      2024040524411KYK 9101            PLACA POSICION.MARCHAS     SAO                         Pe網                                                                            84839000000000010000000000000001482900
2012700005299451    68032648000264062002562      2024040524425KYK 9100            PLACA, TAMBOR SELETOR                                  Pe網                                                                            84839000000000010000000000000000432104
20128000000043855   28938475000142062002562      2021072024435K62 B000            MOLA, POSICION.TAMBOR                                  Pe網                                                                            73202010000000010000000000000000572800
20129000000038355   28938475000142062002562      2021072024641GFP 9000            MOLA BRACO SELETOR         SAO                         Pe網                                                                            73202010000000010000000000000000285204
2013000002901917    48610521000197062002562      2024040224651041 0006            MOLA RETORNO EIXO SELETOR  SAO                         Pe網                                                                            73202010000000010000000000000001450725
2013100001947021    47715610000135062002562      2024040524652035 0003 DA         PINO MOLA RETORNO SELET                                Pe網                                                                            73181500000000010000000000000000771433
2013200004338662    10963007000162062002562      2024040128211KWB 6001            PINHAO PEDAL PARTIDA                                   Pe網                                                                            84839000000000010000000000000007340000
20133000013907210   04337168002515062002562      2023111128221KWB 6001            CATRACA PARTIDA                                        Pe網                                                                            84839000000000010000000000000004560000
2013400003079171    04944068000180062002562      2024040528251KWB 6003            EIXO PEDAL PARTIDA                                     Pe網                                                                            84831090000000010000000000000014530000
20135000013907210   04337168002515062002562      2023111128262KWB 6002            LIMITADOR MOLA PARTIDA                                 Pe網                                                                            84839000000000010000000000000002213600
2013600000734002    23007560000173062002562      2024040528265KWB 6000            BUCHA, PEDAL PARTIDA                                   Pe網                                                                            39269090000000010000000000000000690000
20137000000041255   28938475000142062002562      2021072128271KWB 6003            MOLA PINHAO PARTIDA                                    Pe網                                                                            73209000000000010000000000000000383700
20138000000041755   28938475000142062002562      2021072128281KWB 6003            MOLA PEDAL PARTIDA                                     Pe網                                                                            73202010000000010000000000000002323993
20139000016811010   04337168002515062002562      2024031828300K03 N400            CONJ.PEDAL PART.(S/BORR.)                              Pe網                                                                            87141000000000010000000000000025962400
2014000002904427    48610521000197062002562      2024040530520K3H B000            ESPA큐DOR PARA FIXA츒 DA BOBINA DE IGNI츒 DO MOTOR DAPe網                                                                            87141000000000020000000000000000425280
2014100006872237    52541760000100062002562      2024040430700GBJ M314 M1         CONJ.SUPRESSOR RUIDO       SAO                         Pe網                                                                            85119000000000010000000000000004480000
2014200006299401    01376079000112062002562      2024040531500GFP 9062 M1         ACUMULADOR ELETRICO - BATERIA DE CHUMBO, DTZ5, 12V, 4AHPe網                                                                            85071010000000010000000000000053214600
2014300006872267    52541760000100062002562      2024040431916KWB 6011 M1         VELA IGNICAO CPR6EA-9S     SAO                         Pe網                                                                            85111000000000010000000000000003552600
2014400000405031    08962294000144062002562      2024040532100K62 B012            FIACAO PRINCIPAL           MAO                         Pe網                                                                            85443000000000010000000000000097600000
2014500005296621    68032648000264062002562      2024040532111K62 B000            PRESILHA FIACAO                                        Pe網                                                                            73261900000000010000000000000000454900
2014600002611303    09241710000188062002562      2024040533400K62 B020 M1         INDICADOR DE MUDAN큐 DE DIRE츒 DIANTEIRO DIREITO DA MOPe網                                                                            85122022000000010000000000000013810000
2014700002611303    09241710000188062002562      2024040533450K62 B020 M1         INDICADOR DE MUDAN큐 DE DIRE츒 DIANTEIRO ESQUERDO DA MPe網                                                                            85122022000000010000000000000013800000
2014800002611303    09241710000188062002562      2024040533600K62 B011 M1         INDICADOR DE MUDANCA DE DIRECAO, TRASEIRO DIREITO, DA MPe網                                                                            85122022000000010000000000000012730000
2014900002611303    09241710000188062002562      2024040533650K62 B011 M1         INDICADOR DE MUDANCA DE DIRECAO, TRASEIRO ESQUERDO, DA Pe網                                                                            85122022000000010000000000000012730000
2015000002611303    09241710000188062002562      2024040533701K62 B011 M1         LANTERNA TRASEIRA DA MOTOCICLETA, COM LAMPADA E FIA츒 Pe網                                                                            85122029000000010000000000000036730000
20151000017146610   04337168002515062002562      2024040133705KW7 9002            COXIM "A" DE BORRACHA VULCANIZADA NAO ENDURECIDA, DA LAPe網                                                                            40169990000000040000000000000000273400
2015200002611023    09241710000188062002562      2024040533741KRE E311 M1         REFLETOR LATERAL TRASEIRO DA MOTOCICLETA, DE PLASTICO. Pe網                                                                            87141000000000010000000000000003120000
2015300000550941    07379546000144062002562      2024040535010K62 B010            KIT FECHADURA DE IGNICAO COM FIACAO E CONECTOR, TRAVA DPe網                                                                            83012000000000010000000000000041760000
20154000016916910   04337168002515062002562      2024032235200K62 B011 M1DA       CONJUNTO DE INTERRUPTORES DE COMANDO DO GUIDAO DA MOTOCPe網                                                                            85365090000000010000000000000028172800
20155000016851210   04337168002515062002562      2024031935340GFP 9011 M1         CHAVE INTERRUPTORA, NAO AUTOMATICA, 12V, DO FREIO DIANTPe網                                                                            85365090000000010000000000000003305800
20156000000213727   04337168000148080003753      2024072335350K62 BA12 M1         CONJ.INTERR.FREIO TRAS.    SAO                         Pe網                                                                            85365090000000010000000000000012816100
2015700003213861    44068211000131062002562      2024040535751KPH 9003 DA         PINO DO INTERRUPTOR DO PONTO DE NEUTRO, DO TAMBOR SELETPe網                                                                            73182900000000010000000000000000167400
20158000000043055   28938475000142062002562      2021072035752K62 B000            MOLA HELICOIDAL CILINDRICA, DO INTERRUPTOR DE MUDAN큐 DPe網                                                                            73202010000000010000000000000000032000
20159000010316410   04337168002515062002562      2023071036535K62 B010            PROTETOR SENSOR OXIGENIO SAO                           Pe網                                                                            87141000000000010000000000000002534700
2016000000501141    05213262000158062002562      2024040537200K62 B010 M1         VELOCIMETRO PARA MOTOCICLETA, COM HODOMETRO E INDICADORPe網                                                                            90292010000000010000000000000062040000
20161000008277510   04337168002515062002562      2023041837751K62 B000            PROTETOR SENSOR                                        Pe網                                                                            87141000000000010000000000000001983600
2016200001244354    84657907000118062002562      2024040538770K62 BA12 M1         UNIDADE COMP.PGM-FI/IGN    MAO                         Pe網                                                                            90328925000000010000000000000062420000
20163000000041755   28938475000142062002562      2021072140511300 0000            BUCHA, CAPA CORRENTE                                   Pe網                                                                            73269090000000010000000000000000134304
2016400000790881    08996956000105062002562      2024040540530K62 BA10 M1         CORRENTE TRANS.DID428DX2-104LE                         Pe網                                                                            73151210000000010000000000000021510000
20165000000213727   04337168000148080003753      2024072340541KSS 7300            AJUSTADOR DA CORRENTE DE TRANSMISSAO DA RODA TRASEIRA DPe網                                                                            87141000000000020000000000000001656300
2016600003193231    44068211000131062002562      2024040442301GCE 9001            EIXO DA RODA TRASEIRA DA MOTOCICLETA, DE ACO.          Pe網                                                                            87141000000000010000000000000005286766
2016700003193231    44068211000131062002562      2024040442301GFP 9000            EIXO DA RODA TRASEIRA DA MOTOCICLETA, DE ACO.          Pe網                                                                            87141000000000010000000000000005428600
20168000000213727   04337168000148080003753      2024072342304GFP 9000 DA         ESPACADOR LATERAL DA RODA TRASEIRA DA MOTOCICLETA, DE APe網                                                                            87141000000000010000000000000003491700
2016900000423141    00021622000104062002562      2024040242313GFP 9002            BUCHA DO PAINEL DO FREIO TRASEIRO DA MOTOCICLETA, DE ACPe網                                                                            73182900000000010000000000000004436100
20170000014922715   05541925000163062002562      2024040142600K62 BA04 ZA         CONJ.RODA TRASEIRA                                     Pe網                                                                            87141000000000010000000000000231726600
2017100002211631    01771241000105063002302      2024040442601K62 B000            CUBO DA RODA TRASEIRA DA MOTOCICLETA, DE ALUMINIO, PINTPe網                                                                            87141000000000010000000000000057080000
2017200001816441    43803725000120063002302      2024040542620GFP 9000            ESPACADOR CENTRAL DA RODA TRASEIRA DA MOTOCICLETA, DE APe網                                                                            87141000000000010000000000000004449679
2017300003135525    07857217000161063002302      2024040542711K62 BA20 M2         PNEU TRASEIRO                                          Pe網                                                                            40114000000000010000000000000058265700
2017400003135535    07857217000161063002302      2024040542712K62 BA20 M2         CAMARA DE AR                                           Pe網                                                                            40139000000000010000000000000013175300
2017500002212191    01771241000105062002562      2024040543000K62 BA00 FA         PAINEL DO FREIO TRASEIRO, COM SAPATA DE FREIO, DE ALUMIPe網                                                                            87141000000000010000000000000058460000
20176000015244710   04337168002515062002562      2024011843431KSS J300            BRACO ANCORAGEM FREIO TRAS.                            Pe網                                                                            87141000000000010000000000000007620700
20177000016851310   04337168002515062002562      2024031943450K62 BA00            EQUALIZADOR DO FREIO TRASEIRO DA MOTOCICLETA, DE ACO, CPe網                                                                            87141000000000010000000000000010647100
20178000010990910   04337168002515062002562      2023073143453KGA K001            PINO GUIA "B", NAO ROSCADO, DE ACO BAIXO CARBONO, SEM TPe網                                                                            73182900000000010000000000000000825600
2017900000767641    10310057000140062002562      2024040543455K62 BA00            BRACADEIRA CABO CBS                                    Pe網                                                                            73182200000000010000000000000001340900
20180000017283410   04337168002515062002562      2024040443459GN5 7603 DA         PORCA AJUSTADOR FREIO TRAS.                            Pe網                                                                            73181600000000010000000000000000271900
20181000000039555   28938475000142062002562      2021072143472KGA K001            MOLA "A" DA VARETA DE FREIO TRASEIRO DA MOTOCICLETA, HEPe網                                                                            73202010000000010000000000000000298697
2018200004140801    02499629000153062002562      2024040543570K62 BA00            SUPORTE COMP.FREIO                                     Pe網                                                                            87141000000000010000000000000020070000
2018300000767651    10310057000140062002562      2024040543572K62 BA00            TAMPA CABO CBS                                         Pe網                                                                            87141000000000010000000000000001215700
2018400005330181    68032648000264062002562      2024050343590K62 BA00            PLACA DE FIXACAO DO EQUALIZADO DO FREIO TRASEIRO DA MOTPe網                                                                            87141000000000010000000000000010903581
20185000015063010   04337168002515062002562      2024011243591K62 BA00            PLACA COMP.B LINK EQUALIZADOR                          Pe網                                                                            87141000000000010000000000000003688600
2018600005296681    68032648000264062002562      2024040543593K62 BA00            HASTE DE ARTICULACAO DO EQUALIZADOR DO FREIO TRASEIRO DPe網                                                                            87141000000000010000000000000002874700
2018700000423141    00021622000104062002562      2024040244311GFP 9001            ESPACADOR LAT.RODA DIANT.                              Pe網                                                                            87141000000000010000000000000007133100
20188000000009615   05541925000163062002562      2024072244600K62 BA03 ZA         CONJ.RODA DIANTEIRA                                    Pe網                                                                            87141000000000010000000000000197276600
2018900002211631    01771241000105063002302      2024040444601K62 B000            CUBO RODA DIANT.(NH-109MS)                             Pe網                                                                            87141000000000010000000000000053270000
20190000017146810   04337168002515062002562      2024040144620400 0008            ESPACADOR RODA DIANT.      SAO                         Pe網                                                                            87141000000000010000000000000002319600
2019100003135545    07857217000161063002302      2024040544711K62 BA20 M2         PNEU DIANTEIRO                                         Pe網                                                                            40114000000000010000000000000049565600
2019200003135555    07857217000161063002302      2024040544712K62 BA20 M2         CAMARA DE AR                                           Pe網                                                                            40139000000000010000000000000012860600
2019300002212191    01771241000105062002562      202404054500AK62 BA01 ZA         PAINEL DO FREIO DIANTEIRO DA MOTOCICLETA, DE ALUMINIO, Pe網                                                                            87141000000000010000000000000089600000
20194000017146810   04337168002515062002562      2024040145453GJE 9001            JUN츒 DO BRA큞 DO FREIO TRASEIRO DA MOTOCICLETA, DE A큟e網                                                                            87141000000000020000000000000002516800
20195000000040355   28938475000142062002562      2021072145456GGL J000            MOLA HELICOIDAL CILINDRICA, DO CABO DO FREIO DA MOTOCICPe網                                                                            73202010000000020000000000000000199196
20196000000039455   28938475000142062002562      2021072146513K62 BA00            MOLA RETORNO PEDAL                                     Pe網                                                                            73202010000000010000000000000001893096
20197000000039455   28938475000142062002562      2021072146613K62 BA00            JOGO MOLA RETORNO                                      Pe網                                                                            73202010000000010000000000000002013300
20198000014937915   05541925000163062002562      2024040550101K62 B000 H1DB       TUBO DIREITO SUPERIOR       PR                         Pe網                                                                            87141000000000010000000000000012253600
20199000014937915   05541925000163062002562      2024040550102K62 B000 H1DB       TUBO ESQUERDO SUPERIOR      PR                         Pe網                                                                            87141000000000010000000000000012253600
20200000014938015   05541925000163062002562      2024040550103K62 B000 H1DB       TUBO DIREITO INFERIOR       PR                         Pe網                                                                            87141000000000010000000000000003487400
20201000014938015   05541925000163062002562      2024040550104K62 B000 H1DB       TUBO ESQUERDO INFERIOR      PR                         Pe網                                                                            87141000000000010000000000000003487400
20202000016851410   04337168002515062002562      2024031950111K62 BA00 H1         SUPORTE A,TAMPA DIANTEIRA                              Pe網                                                                            87141000000000010000000000000003288800
2020300001816551    43803725000120062002562      2024040450112K62 B000 H1         SUPORTE DIANT.CARENAGEM                                Pe網                                                                            87141000000000010000000000000003094664
2020400004140981    02499629000153062002562      202404055012AK62 B000            JG.TB.PRINCIPAL+PLACA                                  Pe網                                                                            87141000000000010000000000000057870000
20205000017147010   04337168002515062002562      202404015012BK62 B000            JG.SUPTE.BUZINA+BOBINA IGN                             Pe網                                                                            87141000000000010000000000000005397500
20206000017147010   04337168002515062002562      202404015012CK62 B000            REFORCO COMP.TUBO DIRECAO                              Pe網                                                                            87141000000000010000000000000006817000
2020700004140921    02499629000153062002562      2024040550120GFP 9002 AA         TUBO COLUNA DIRECAO(BRUTO)                             Pe網                                                                            87141000000000010000000000000027850000
2020800005330281    68032648000264062002562      2024061350123K62 B000 H1         SUPTE.TRAVA DIRECAO                                    Pe網                                                                            87141000000000010000000000000006959101
20209000014243910   04337168002515062002562      2023112750124K62 B000 H1         REFORCO, TUBO DIRECAO INF.                             Pe網                                                                            87141000000000010000000000000002018900
2021000005297701    68032648000264062002562      2024040550128K62 B000 H1         SUPORTE FIACAO                                         Pe網                                                                            87141000000000010000000000000000380000
20211000017147010   04337168002515062002562      2024040150136K62 B000 H1DA       TUBO PIVOT GARFO TRAS.    SAO                          Pe網                                                                            87141000000000010000000000000011152200
2021200004140221    02499629000153062002562      202404045014AK62 B000            JG.SUPTE.ASSENTO+SUPTE.B                               Pe網                                                                            87141000000000010000000000000008750000
2021300005297681    68032648000264062002562      2024040550142K62 B000 H1         SUPORTE SENSOR ANGULO                                  Pe網                                                                            87141000000000010000000000000002536600
20214000000001610   04337168002515062002562      2024062150143K62 B000 H1         SUPORTE TANQUE COMB.                                   Pe網                                                                            87141000000000010000000000000004057500
2021500005297701    68032648000264062002562      2024040550145K62 B000 H1         SUPORTE, TRAS.DIR.TANQUE                               Pe網                                                                            87141000000000010000000000000001571400
2021600005296621    68032648000264062002562      2024040550146K62 B000 H1         SUPORTE, TRAS.ESQ.TANQUE                               Pe網                                                                            87141000000000010000000000000001571401
20217000016851510   04337168002515062002562      2024031950150K62 B000 H1         PLACA TRANSV.TRAS.                                     Pe網                                                                            87141000000000010000000000000007684200
2021800004140941    02499629000153062002562      2024040550151K62 B000 H1         SUPTE.DIR.ALCA TRAS.                                   Pe網                                                                            87141000000000010000000000000002280000
2021900004140941    02499629000153062002562      2024040550152K62 B000 H1         SUPTE.ESQ.ALCA TRAS.                                   Pe網                                                                            87141000000000010000000000000002280000
2022000000767341    10310057000140062002562      2024040450161K62 B000 H1DA       SUPTE.A,AMORTEC.TRAS.DIR.  MAO                         Pe網                                                                            87141000000000010000000000000001939000
2022100004140221    02499629000153062002562      2024040450162K62 B000 H1         SUPTE.B AMORTEC.TRAS.DIR.                              Pe網                                                                            87141000000000010000000000000004910000
2022200000767341    10310057000140062002562      2024040450163K62 B000 H1DA       SUPTE.A,AMORTEC.TRAS.ESQ.  MAO                         Pe網                                                                            87141000000000010000000000000002159000
2022300004140221    02499629000153062002562      2024040450164K62 B000 H1         SUPTE.B AMORTEC.TRAS.ESQ.                              Pe網                                                                            87141000000000010000000000000004930000
20224000000001610   04337168002515062002562      2024062150165K62 B000 H1         SUPTE.CAIXA BATERIA                                    Pe網                                                                            87141000000000010000000000000003648600
2022500004140221    02499629000153062002562      2024040450166K62 B000 H1         SUPTE.TAMPA CORPO CENTRAL                              Pe網                                                                            87141000000000010000000000000000470000
2022600005330281    68032648000264062002562      2024061350167K62 B000 H1         SUPTE.TAMPA LAT.TRAS.DIR.                              Pe網                                                                            87141000000000010000000000000001058000
2022700005330281    68032648000264062002562      2024061350168K62 B000 H1         SUPTE.TAMPA LAT.TRAS.ESQ.                              Pe網                                                                            87141000000000010000000000000001058000
2022800004140941    02499629000153062002562      202404055018AK62 BA00            SUPTE.SUP.DIR.MOTOR COMP.                              Pe網                                                                            87141000000000010000000000000003630000
2022900004140951    02499629000153062002562      2024040550182K62 B000 H1         SUPORTE SUP.ESQ.MOTOR                                  Pe網                                                                            87141000000000010000000000000002270000
20230000017147110   04337168002515062002562      202404015019AK62 BA00            PLACA PIVO COMP.           SAO                         Pe網                                                                            87141000000000010000000000000029479600
20231000000213727   04337168000148080003753      2024072350301GN5 9013            PISTA DE ESFERAS SUPERIOR, DA COLUNA DE DIRE츒 DA MOTOPe網                                                                            84829990000000010000000000000003737800
20232000000213727   04337168000148080003753      2024072350302GN5 9006            PISTA DE ESFERAS, INFERIOR, DA COLUNA DE DIRECAO DA MOTPe網                                                                            87141000000000010000000000000003656700
20233000017147110   04337168002515062002562      2024040150306GN5 9004            PORCA TRAVA, SEXTAVADA, DA COLUNA DE DIRE츒 DA MOTOCICPe網                                                                            73181600000000010000000000000002119000
20234000017147110   04337168002515062002562      2024040150400K62 B000 DA         ALCA TRASEIRA DIREITA, DA MOTONETA, DE ACO, PINTADA.   Pe網                                                                            87141000000000010000000000000016244700
20235000017015610   04337168002515062002562      2024032650410K62 B000 DA         ALCA TRASEIRA ESQUERDA, DA MOTONETA, DE ACO, PINTADA.  Pe網                                                                            87141000000000010000000000000016240000
20236000017147210   04337168002515062002562      2024040150512K62 BA00            EIXO PIVO FREIO TRAS.      SAO                         Pe網                                                                            87141000000000010000000000000007435400
20237000000041955   28938475000142062002562      2021072150536KRM B903            MOLA HELICOIDAL CILINDRICA, DO CAVALETE LATERAL DA MOTOPe網                                                                            73202010000000010000000000000001379097
2023800000733712    23007560000173062002562      2024040450661KWB 6002            BORRACHA DO PEDAL DE APOIO DO PILOTO DA MOTOCICLETA, DEPe網                                                                            40169990000000020000000000000003140000
2023900000734002    23007560000173062002562      2024040550712KRM B901 DA         BORRACHA DO PEDAL DE APOIO TRASEIRO DA MOTOCICLETA.    Pe網                                                                            40169990000000020000000000000001990000
20240000017147210   04337168002515062002562      2024040150717KRM 8601            PEDAL DE APOIO TRASEIRO DA MOTOCICLETA, DE A큞, PINTADOPe網                                                                            87141000000000020000000000000003698900
2024100005296641    68032648000264062002562      2024040550718KRM 8600            PLACA PEDAL APOIO TRAS.  SAO                           Pe網                                                                            73182200000000020000000000000000545500
2024200001412661    04012043000148062002562      2024040551400GFP 9011 M1         CJ.AMORT.DIANT.DIR.                                    Pe網                                                                            87141000000000010000000000000101930000
2024300001412661    04012043000148062002562      2024040551500GFP 9011 M1         CJ.AMORT.DIANT.ESQ.                                    Pe網                                                                            87141000000000010000000000000102410000
20244000000043355   28938475000142062002562      2021072051531K62 BA00            GUIA DO CABO DO FREIO FRONTAL DA MOTONETA, DE ACO.     Pe網                                                                            87141000000000010000000000000003131900
2024500001494311    62430194000112062002562      2024040252101GFP 9010            PARAFUSO PIVO DO GARFO TRASEIRO DA MOTOCICLETA, DE ACO Pe網                                                                            73181500000000010000000000000007765708
20246000000008315   05541925000163080003745      2024070852104K62 BA00 H1         SUPORTE BRACO FREIO                                    Pe網                                                                            87141000000000010000000000000005213800
20247000014937715   05541925000163062002562      2024040552110K62 BA00            GARFO DA SUSPENS츒 TRASEIRA DA MOTOCICLETA, DE A큞, PINPe網                                                                            87141000000000010000000000000079001800
20248000000191620   05541925000244063002302      2024031652111GFP 9001 AA         TUBO 55,00X25,00X1,60X168,90                           Pe網                                                                            87141000000000010000000000000006015200
20249000000142120   05541925000244063002302      2023112252115GCE 9001 H1         PARAF. PIVO AMORT. TRAS.  SAO                          Pe網                                                                            73181400000000020000000000000001075800
2025000005297671    68032648000264063002302      2024040552131GFP 9000 H1         SUPORTE A, CAPA DA CORRENTE                            Pe網                                                                            87141000000000010000000000000000424599
20251000000202320   05541925000244063002302      2024040552143GFP 9000 AA         BUCHA PIVOT, GARFO TRAS.  SAO                          Pe網                                                                            73182900000000020000000000000002640800
2025200000767191    10310057000140063002302      2024040352145K62 BA00 H1         SUPORTE CAPA CORRENTE                                  Pe網                                                                            87141000000000010000000000000000516900
2025300000767191    10310057000140063002302      2024040352146K62 BA00 H1         SUPTE.MOLA RETORNO PEDAL                               Pe網                                                                            87141000000000010000000000000000405200
2025400005297291    68032648000264063002302      2024040552151GFP 9000 H1         TERMINAL DIR. GARFO TRAS.                              Pe網                                                                            87141000000000010000000000000009715200
20255000000072920   05541925000244063002302      2023050252156GFP 9000 H1         TERMINAL ESQ. GARFO TRAS.                              Pe網                                                                            87141000000000010000000000000011175700
2025600004139031    02499629000153063002302      2024040452161GFP B000 AADA       SUPTE.PEDAL APOIO DIR.                                 Pe網                                                                            87141000000000010000000000000003560000
2025700004139261    02499629000153063002302      2024040452162GCE 9000 H1DA       SUPORTE PEDAL APOIO        MAO                         Pe網                                                                            87141000000000010000000000000000390000
2025800005299531    68032648000264063002302      2024040552162GFP B000 H1         REFORCO PEDAL APOIO DIR.   SAO                         Pe網                                                                            87141000000000010000000000000000930902
2025900005296631    68032648000264063002302      2024040552172GFP 9000 H1         SUPTE.GUIA CORRENTE TRANS. SAO                         Pe網                                                                            87141000000000010000000000000000460700
2026000004139031    02499629000153063002302      2024040452181GCE 9000 AADA       SUPORTE, PEDAL DE APOIO ESQ.                           Pe網                                                                            87141000000000010000000000000003200000
2026100001412661    04012043000148062002562      2024040552400K62 B010 M1         AMORTECEDOR DA SUSPENSAO TRASEIRA DA MOTONETA, COM MOLAPe網                                                                            87141000000000020000000000000065230000
2026200004141441    02499629000153062002562      2024040553100K62 B000            GUIDAO COMP.(NH-1)                                     Pe網                                                                            87141000000000010000000000000060460000
2026300000040163    08741572000133062002562      2024040553113GFP 9001 DA         RETENTOR SUPTE.MANOPLA                                 Pe網                                                                            40169300000000010000000000000000600000
2026400000734002    23007560000173062002562      2024040553140K62 B000            MANOPLA DIREITA, DA MOTONETA, DE PVC COM TUBO INTERNO. Pe網                                                                            87141000000000010000000000000003030000
2026500000734002    23007560000173062002562      2024040553166KGA 9001            MANOPLA ESQUERDA           MAO                         Pe網                                                                            87141000000000010000000000000004280000
2026600000734002    23007560000173062002562      2024040553167K44 V001            CARCACA SUP.ACELERADOR                                 Pe網                                                                            87141000000000010000000000000001180000
20267000014937415   05541925000163062002562      2024040553171K62 BA01            SUPTE.ALAVANCA DIR,(NH-105)HC                          Pe網                                                                            87141000000000010000000000000007865200
2026800002147271    04414488000154063002302      2024040553171K62 BA01 AA         SUPTE.ALAV.DIR.(S/PT)      MAO                         Pe網                                                                            87141000000000010000000000000005750000
20269000014937415   05541925000163062002562      2024040553172GFP B000            SUPTE.ALAV.ESQ.(NH105)    HC                           Pe網                                                                            87141000000000010000000000000007420000
2027000002147271    04414488000154063002302      2024040553172GFP B000 AA         SUPORTE ALAV.ESQ.(S/PT)                                Pe網                                                                            87141000000000010000000000000005460000
2027100002103251    31303127000103062002562      2024040553173KY0 9701 DA         CAPA, ALAVANCA DIR.       MAO                          Pe網                                                                            87141000000000010000000000000001290000
2027200002103251    31303127000103062002562      2024040553174KY0 9702            CAPA ALAVANCA ESQUERDA     MAO                         Pe網                                                                            87141000000000010000000000000001160000
20273000000009715   05541925000163062002562      2024072253175K62 BA01            ALAVANCA DIR.GUIDAO(NH-105) HC                         Pe網                                                                            87141000000000010000000000000007621400
2027400002147271    04414488000154063002302      2024040553175K62 BA01 AA         ALAVANCA DIR.GUIDAO(S/PT)                              Pe網                                                                            87141000000000010000000000000005580000
2027500002147271    04414488000154063002302      2024040553178GFP 9000 BB         ALAVANCA ESQ.(BRT)         MFA                         Pe網                                                                            87141000000000010000000000000005670000
20276000014937515   05541925000163062002562      2024040553178GFP 9002            ALAVANCA ESQ.(NH105)        HC                         Pe網                                                                            87141000000000010000000000000007685000
20277000000043655   28938475000142062002562      2021072053199K62 BA00            MOLA RETORNO ALAVANCA DIR.                             Pe網                                                                            73202010000000010000000000000000571500
20278000014937815   05541925000163062002562      2024040553200K62 BA00            COLUNA DIRECAO COMP.(NH-1)                             Pe網                                                                            87141000000000010000000000000117045200
2027900001412081    04012043000148063002302      2024040453200K62 BA00 AA         COLUNA DIRECAO COMP.(S/PT) SHW                         Pe網                                                                            87141000000000010000000000000085680000
20280000002169055   28938475000142062002562      2024040353209GAH 0004 DA         PRESILHA, DE ACO, PARA FIXACAO DO FAROL DA MOTOCICLETA,Pe網                                                                            73261900000000020000000000000000273997
20281000017031510   04337168002515062002562      2024032653211GN5 9003            PISTA DE ESFERAS SUPERIOR, CONICA, DA COLUNA DE DIRECAOPe網                                                                            84829990000000010000000000000003757100
20282000000213727   04337168000148080003753      2024072353212GN5 9005            PISTA DE ESFERAS INFERIOR, CONICA, DA COLUNA DE DIRECAOPe網                                                                            84829990000000010000000000000004754800
2028300005292851    68032648000264062002562      2024040353216GFP 9000 C1         ARRUELA DE ENCOSTO, PLANA, DIAMETRO DE 48MM, DA COLUNA Pe網                                                                            73182200000000010000000000000002518811
20284000000213727   04337168000148080003753      2024072353220GFP 9000            PORCA DE ACO BAIXO CARBONO, COM TEMPERA, ZINCADO, 40X8.Pe網                                                                            73181600000000010000000000000004975100
20285000011340010   04337168002515062002562      2023080961104GCE E401            BUCHA,PARALAMA DT.         SAO                         Pe網                                                                            73182900000000080000000000000000501400
2028600004557321    57593253000567062002562      2024040561301K62 B000 DA         CAREN.INTERNA DIANT.(PRETO) IJ                         Pe網                                                                            87141000000000010000000000000005190000
2028700000167312    20846063000170062002562      2024040561310GFP 9110 FA         MARCA HONDA(T1)            MAO                         Pe網                                                                            39199020000000010000000000000000700000
20288000017050010   04337168002515062002562      2024032661360K62 B000            SUPORTE FRONTAL RABETA                                 Pe網                                                                            87141000000000010000000000000011073500
2028900004026311    04413977000191062002562      2024040561411K62 B001 DA         PAINEL VELOC.(PRETO)                                   Pe網                                                                            87141000000000010000000000000002240000
2029000006575732    84501873000178062002562      2024040561415K62 B000 DA         TAMPA DIR.SINALIZADOR(PRETO)                           Pe網                                                                            87141000000000010000000000000000890000
2029100006576742    84501873000178062002562      2024040561425K62 B000 DA         TAMPA ESQ.SINALIZADOR(PRETO)                           Pe網                                                                            87141000000000010000000000000000890000
2029200004557541    57593253000567062002562      2024040564350K62 B000            TAMPA CORPO CENTRAL                                    Pe網                                                                            87141000000000010000000000000005100000
2029300005330181    68032648000264062002562      2024050377106K62 B000            GANCHO, CAPACETE                                       Pe網                                                                            87141000000000020000000000000000537543
2029400002102921    31303127000103062002562      202404057720BK62 B002            CONJ.PLACA ASSENTO(NH-1)   MAO                         Pe網                                                                            87141000000000010000000000000013650000
20295000008622110   04337168002515062002562      2023050277201KWB 6002            ARTICULACAO ASSENTO        SAO                         Pe網                                                                            87141000000000010000000000000002800900
2029600000040163    08741572000133062002562      2024040577201K62 B000 DA         COXIM, DE BORRACHA VULCANIZADA NAO ENDURECIDA, DE FIXACPe網                                                                            40169990000000020000000000000001160000
2029700002102961    31303127000103062002562      2024040577204K62 B000            CAIXA BATERIA                                          Pe網                                                                            87141000000000010000000000000002330000
2029800002102981    31303127000103062002562      2024040577205K62 B000            TAMPA, BATERIA                                         Pe網                                                                            87141000000000010000000000000001780000
2029900000040163    08741572000133062002562      2024040577206329 0000 DA         BORRACHA B,APOIO ASSENTO                               Pe網                                                                            40169990000000020000000000000001180000
2030000000550961    07379546000144062002562      2024040577220K62 B011 M1         TRAVA DO ASSENTO DA MOTOCICLETA, DE METAL COMUM.       Pe網                                                                            87141000000000010000000000000013660000
2030100005330291    68032648000264062002562      2024062077235469 0002 DA         MOLA DO TIPO CHAPA, DA TRAVA DO ASSENTO DA MOTOCICLETA,Pe網                                                                            73209000000000010000000000000000502117
2030200005330281    68032648000264062002562      2024061377242K62 B000            SUPTE.TRAVA ASSENTO                                    Pe網                                                                            87141000000000010000000000000000844800
2030300004557331    57593253000567062002562      2024040580100K62 B010            PARALAMA TRASEIRO                                      Pe網                                                                            87141000000000010000000000000009790000
2030400004026311    04413977000191062002562      2024040580110K62 B000 DA         TAMPA TRAS.DIR.(PRETO)                                 Pe網                                                                            87141000000000010000000000000003980000
2030500006575732    84501873000178062002562      2024040580111K62 B000 DA         REFORCO DIR.TRAS.SINALIZADOR                           Pe網                                                                            87141000000000010000000000000000840000
2030600004026311    04413977000191062002562      2024040580115K62 B000 DA         TAMPA TRAS.CENTRAL(PRETO)                              Pe網                                                                            87141000000000010000000000000001580000
2030700004026311    04413977000191062002562      2024040580120K62 B000 DA         TAMPA TRAS.ESQ.(PRETO)                                 Pe網                                                                            87141000000000010000000000000004060000
2030800006575732    84501873000178062002562      2024040580121K62 B000 DA         REFORCO ESQ.TRAS.SINALIZADOR                           Pe網                                                                            87141000000000010000000000000000840000
20309000046209111   54823455000560062002562      2024040380124KPH 7001            PRESILHA ECU                                           Pe網                                                                            40169300000000010000000000000000742300
2031000006575732    84501873000178062002562      202404058013AK62 BA00            CAPA CORRENTE              MAO                         Pe網                                                                            87141000000000010000000000000009800000
2031100002102981    31303127000103062002562      2024040583501K62 B000            CAIXA FERRAMENTA                                       Pe網                                                                            87141000000000010000000000000001280000
20312000017147410   04337168002515062002562      2024040183601MB0 0001 DA         COXIM DA TAMPA LATERAL DA MOTOCICLETA, DE BORRACHA VULCPe網                                                                            40169990000000020000000000000000273300
2031300000167312    20846063000170062002562      2024040586201K62 B000 DBFB       MARCA TAMPA DIANT.DIR.(T2) MAO                         Pe網                                                                            39199020000000010000000000000001670000
2031400000167312    20846063000170062002562      2024040586202K62 B000 DBFB       MARCA TAMPA DIANT.ESQ.(T2) MAO                         Pe網                                                                            39199020000000010000000000000001670000
2031500003116677    01111039000491062002562      2024040387125GFP B011            ETIQUETA IDENTIFICACAO     SAO                         Pe網                                                                            39199020000000010000000000000000100200
2031600000167292    20846063000170062002562      2024040587132K62 BA00 DA         ETIQUETA INFORMACAO E/M    MAO                         Pe網                                                                            39199020000000010000000000000000990000
2031700001399491    50231778000180062002562      2024040387505K62 BA00            ETIQUETA PRECAUCAO PNEU    SAO                         Pe網                                                                            39199020000000010000000000000000528983
20318000017147410   04337168002515062002562      2024040189010K62 BA10            JOGO FERRAMENTAS                                       Pe網                                                                            82060000000000010000000000000011086100
20319000014102210   04337168002515062002562      2023112290002KWB 6001 DA         PARAFUSO FLANGE 5X12                                   Pe網                                                                            73181500000000020000000000000000194800
20320000014102210   04337168002515062002562      2023112290004GHB 6301 DA         PARAFUSO FLANGE, DO SUPORTE DO PAINEL DE INSTRUMENTOS DPe網                                                                            73181500000000020000000000000000221900
20321000014419610   04337168002515062002562      2023120490011KPT A001            PARAF.SEXTAVADO 6X10       SAO                         Pe網                                                                            73181500000000020000000000000000318700
2032200001494301    62430194000112062002562      2024040290017KWW 7402            PARAFUSO TAMPA CABECOTE                                Pe網                                                                            73181500000000020000000000000001189563
2032300003189071    44068211000131062002562      2024040290071171 0103            PARAFUSO 6MM              SAO                          Pe網                                                                            73181500000000010000000000000000231663
20324000011030110   04337168002515062002562      2023080190082KWW 7400            PARAFUSO C/ARRUELA 8X22                                Pe網                                                                            73181500000000010000000000000000975900
20325000014103310   04337168002515062002562      2023112290083KRM 8402            PARAFUSO ROSCADO, DO TIPO SEXTAVADO, PARA FIXACAO DO PIPe網                                                                            73181500000000040000000000000000210000
2032600008495955    61096996000175062002562      2024040390084KPS 9005            PARAFUSO ROSCADO, DE ACO MEDIO CARBONO, COM TEMPERA, GAPe網                                                                            73181500000000010000000000000001274472
2032700002147241    04414488000154062002562      2024040590087KSS 9004            TAMPA,30MM                                             Pe網                                                                            84099190000000010000000000000002200000
20328000011030110   04337168002515062002562      2023080190101GJ6 0003            PARAFUSO AJUSTE                                        Pe網                                                                            73181500000000010000000000000000167800
20329000014103310   04337168002515062002562      2023112290101KGA K000            PARAFUSO ROSCADO, SEXTAVADO, M8X1,25X30.5, DE ACO BAIXOPe網                                                                            73181500000000010000000000000001510700
20330000014103310   04337168002515062002562      2023112290101KSS 7300            PARAFUSO ROSCADO, SEXTAVADO, M8X1.25X26MM, DE ACO BAIXOPe網                                                                            73181500000000010000000000000001117800
2033100001494321    62430194000112062002562      2024040290102KVS J000            PARAFUSO ROSCADO, DO TIPO SEXTAVADO, DE FIXA츒 DA BOBIPe網                                                                            73181500000000020000000000000000783897
2033200001500381    62430194000112062002562      2024040290105KPH 9011            PARAF.ASSENTO                                          Pe網                                                                            73181500000000010000000000000001059919
2033300001494271    62430194000112062002562      2024040290108223 0000 C1         PARAFUSO PIVOT, DO TIPO SEXTAVADO, DO CAVALETE LATERAL Pe網                                                                            73181500000000010000000000000001831633
20334000014103410   04337168002515062002562      2023112290111162 0005 DA         PARAFUSO FLANGE DO PROTETOR FRONTAL DO MOTOR, ROSCADO, Pe網                                                                            73181500000000030000000000000000375400
20335000011030310   04337168002515062002562      2023080190113KRM 8601            PARAF.ARTIC.ALAVANCA       SAO                         Pe網                                                                            73181500000000010000000000000000378100
2033600001947051    47715610000135062002562      2024040590113K62 BA00            PARAF.ARTIC.ALAVANCA       SAO                         Pe網                                                                            73181500000000010000000000000000700850
20337000014103410   04337168002515062002562      2023112290113MM5 0003            PARAF.ALLEN 6X14                                       Pe網                                                                            73181500000000010000000000000000505500
20338000014420010   04337168002515062002562      2023120490118KSS 9001            PARAFUSO FLANGE 6 X 20     SAO                         Pe網                                                                            73181500000000020000000000000000383200
20339000014103510   04337168002515062002562      2023112290120KRM 8601            PARAF.FLANGE 6MM           SAO                         Pe網                                                                            73181500000000010000000000000000415900
2034000003213951    44068211000131063002302      2024040590128GFP 9000 DA         PARAFUSO PRISIONEIRO DA RODA TRASEIRA, DA MOTOCICLETA, Pe網                                                                            73181500000000040000000000000000505548
20341000014103510   04337168002515062002562      2023112290131GCE E401            PINO N츒 ROSCADO, DO PEDAL DE APOIO TRASEIRO DA MOTONETPe網                                                                            73182900000000020000000000000000788800
2034200000495871    57486326000198062002562      2024040390131KRM 8404 DC         PARAFUSO ROSCADO, DO TIPO FLANGE, 8X28MMM, DE ACO BAIXOPe網                                                                            73181500000000010000000000000000654302
2034300003189151    44068211000131062002562      2024040290131MB2 0001 DA         PARAFUSO SEX.INT.10X40                                 Pe網                                                                            73181500000000010000000000000001486333
20344000014103810   04337168002515062002562      2023112290164028 0003 DA         PARAFUSO CABECA CHATA 6X12  SP                         Pe網                                                                            73181500000000020000000000000000256200
2034500005330321    68032648000264062002562      2024062090183GFP 9000            ARRUELA DE ACO, PLANA, DIAMETRO DE 20MM X 2.5MM, COM TEPe網                                                                            73182200000000010000000000000000313874
2034600008495935    61096996000175062002562      2024040390201GCC 0004            PORCA SEXT.7MM                                         Pe網                                                                            73181600000000040000000000000000133083
20347000016600510   04337168002515062002562      2024030890211KRM R200            ESFERA 6MM, DE ACO ALTO CARBONO, COM TEMPERA, COM ACABAPe網                                                                            84829119000000520000000000000000046300
2034800001816281    43803725000120062002562      2024040590231KRM 8402 DC         PORCA TRAVA 14MM         SAO                           Pe網                                                                            73181600000000010000000000000002209588
2034900001816371    43803725000120062002562      2024040590231087 0103            PORCA TRAVA DA EMBREAGEM CENTRIFUGA DA TRANSMISS츒 DA MPe網                                                                            73182200000000010000000000000002482728
2035000008499035    61096996000175062002562      2024040390301KWB 6001            PORCA FLANGEADA, DE ACO BAIXO CARBONO, COM TEMPERA, CROPe網                                                                            73181600000000020000000000000000910377
2035100008496205    61096996000175062002562      2024040390302KBP 9005 DA         PORCA DO EIXO DO GARFO DA SUSPENSAO TRASEIRA, DE A큞 MEPe網                                                                            73181600000000020000000000000000108345
2035200005330361    68032648000264062002562      2024072590307KVK 9000            ARRUELA TRAVA 6MM        SAO                           Pe網                                                                            73182200000000010000000000000000064178
2035300003134334    59108837000100062002562      2024040590402KWW 7402            ARRUELA, 7,2 X 16 X 2,5                                Pe網                                                                            73182200000000040000000000000000867877
20354000013908710   04337168002515062002562      2023111190403KN6 9301            ARRUELA 10X24              SAO                         Pe網                                                                            73182200000000010000000000000001361000
2035500003134334    59108837000100062002562      2024040590404KWW 7402            ARRUELA 8,5 X 26 X 2,3                                 Pe網                                                                            73182200000000010000000000000000510660
2035600003134334    59108837000100062002562      2024040590407KWW 7402            ARRUELA LISA, N츒 ROSCADA, DE ENCOSTO, DO ROLAMENTO DO Pe網                                                                            73182200000000020000000000000000455886
2035700005330361    68032648000264062002562      2024072590407259 0007            ARRUELA DE VEDACAO DO DRENO DO MOTOR DA MOTOCICLETA, DEPe網                                                                            76161000000000010000000000000000094544
20358000007743610   04337168002515062002562      2023032990432086 0002            ARRUELA TRAVA "B", DE SEGURAN큐, DA EMBREAGEM CENTRIFUGPe網                                                                            73182100000000010000000000000000302300
2035900003134334    59108837000100062002562      2024040590443KSS B301            ARRUELA DE VEDACAO DO SENSOR DE TEMPERATURA DO OLEO DO Pe網                                                                            74152100000000010000000000000000518940
20360000013908710   04337168002515062002562      2023111190451KGH 9003            ARRUELA ENTALHADA 14MM                                 Pe網                                                                            73182200000000010000000000000000251900
2036100003124714    59108837000100062002562      2024040390454KPH 9003            ARRUELA 25X20,2X1          SAO                         Pe網                                                                            73182200000000010000000000000000321781
2036200005296651    68032648000264062002562      2024040590463KRM 8403            ARRUELA DE VEDACAO 6,2MM, NAO ROSCADA, DE COBRE.       Pe網                                                                            74152100000000010000000000000000178500
2036300003134334    59108837000100062002562      2024040590475KWB 6003 DA         ARRUELA NAO ROSCADA, 8MM, DE COBRE.                    Pe網                                                                            74152100000000010000000000000000390321
2036400005330331    68032648000264062002562      2024062190501GFP 9000            ARRUELA LISA DE ENCOST, DE ACO BAIXO CARBONO, COM TEMPEPe網                                                                            73182200000000020000000000000000104569
2036500005299621    68032648000264062002562      2024040590503KGA K000            ARRUELA DE PRESSAO DE ACO, NAO ROSCADA, 10MM, DA COLUNAPe網                                                                            73182200000000010000000000000000106300
2036600005297791    68032648000264062002562      2024040590505425 0003 DA         ARRUELA LISA, NAO ROSCADA, DE ENCOSTO, DO PAINEL DO FREPe網                                                                            73182200000000010000000000000000491800
20367000014104010   04337168002515062002562      2023112290507MGE 6400 DA         PARAFUSO ROSCADO, COM ARRUELA, DO TIPO PHILIPS, DE FIXAPe網                                                                            73181500000000020000000000000000341000
2036800005330321    68032648000264062002562      2024062090513KSS 9000            ARRUELA N츒 ROSCADA, DE A큞 BAIXO CARBONO, SEM TRATAMENPe網                                                                            73182200000000010000000000000000651049
2036900005301681    68032648000264062002562      2024040590522MF5 0001            ARRUELA TAMPA DIANTEIRA                                Pe網                                                                            73182200000000010000000000000000160303
2037000005299451    68032648000264062002562      2024040590544KF0 0005 DA         ARRUELA VEDACAO 14MM       SAO                         Pe網                                                                            73182200000000010000000000000000531700
2037100005297661    68032648000264062002562      2024040590602KPT 9001            ANEL ELASTICO EIXO 16MM    SAO                         Pe網                                                                            73182100000000010000000000000000242100
2037200003124714    59108837000100062002562      2024040390605GFP 9004            ANEL ELASTICO,20MM                                     Pe網                                                                            73182900000000020000000000000000377392
2037300006576602    84501873000178062002562      2024040590650KW3 0002 DA         PRESILHA, FIACAO 101MM     MAO                         Pe網                                                                            39269090000000020000000000000000190000
20374000014245910   04337168002515062002562      2023112790677KRM 8601            PORCA DE FIXACAO DAS CARENAGENS DA MOTOCICLETA, COM PREPe網                                                                            73181600000000050000000000000000313800
20375000016771810   04337168002515062002562      2024031590701GF6 0004            PINO NAO ROSCADO, VAZADO, DE ACO, DO CABECOTE DO MOTOR.Pe網                                                                            73182900000000050000000000000000300000
20376000000213727   04337168000148080003753      2024072390702KRM 8402            PIPNO GUIA DA ENGRENAGEM DE ACIONAMENTO DA BOMBA DE OLEPe網                                                                            73182900000000040000000000000000279300
20377000010992910   04337168002515062002562      2023073190703KPS 9003            PINO GUIA A, 10X14         SAO                         Pe網                                                                            73182900000000020000000000000000338100
20378000017147510   04337168002515062002562      2024040190741KFB 0005 DA         CHAVETA, 4MM, DO VIRABREQUIM DO MOTOR DA MOTOCICLETA, DPe網                                                                            73182400000000010000000000000001130800
2037900005297691    68032648000264062002562      2024040590751KPS 9001            PINO TRAVA 8MM             SAO                         Pe網                                                                            73182900000000010000000000000000157700
20380000010993110   04337168002515062002562      2023073190803GFP B100 H1         PINO CONICO 5 X 5                                      Pe網                                                                            76169900000000020000000000000000144900
2038100000646692    43345719000177062002562      2024040291001K62 BA10 M1         ROLAM.RAD.ESFERAS 22X56X16 RH                          Pe網                                                                            84821010000000010000000000000013922100
2038200000646672    43345719000177062002562      2024040291002K62 BA10 M1         ROLAM.RAD.ESFERAS 22X56X16 LH                          Pe網                                                                            84821010000000010000000000000013922100
20383000011030510   04337168002515062002562      2023080191006KWS 9020 M2         ROLAMENTO RAD.ESFERAS 6203 SAO                         Pe網                                                                            84821010000000020000000000000004527000
20384000009489810   04337168002515062002562      2023052991013GFP 9010 M1         ROLAM.RADIAL ESFERA 6200                               Pe網                                                                            84821010000000010000000000000003888200
2038500000651782    43345719000177062002562      2024040491013KSS 9010 M1         ROLAMENTO DE ESFERAS, DE CARGA RADIAL, DO EIXO  TRANSMIPe網                                                                            84821010000000010000000000000002901600
20386000010993610   04337168002515062002562      2023073191014K62 B000            ROLAMENTO RAD.ESFERAS 6201 SAO                         Pe網                                                                            84821010000000010000000000000002834700
20387000014769415   05541925000163062002562      2024021591052K24 9011 M1         ROLAM.RADIAL 6201U L(NSK)                              Pe網                                                                            84821010000000040000000000000005367800
20388000000198720   05541925000244063002302      2024040191055KVS F022 M2         ROLAM.RAD.ESF.6301U L(NSK)                             Pe網                                                                            84821010000000010000000000000005043300
20389000046207911   54823455000560062002562      2024040391305GFP 9002            ANEL VEDACAO 8.8X1.9 MM    SAO                         Pe網                                                                            40169300000000010000000000000000127600
20390000046209211   54823455000560062002562      2024040391307KRM 8402            91307K04 9300 - ANEL DE BORRACHA VULCANIZADA NAO ENDUREPe網                                                                            40169300000000010000000000000000456400
