00433716800014894762953687PORTARIA INTERMINISTERIAL NR 171/16 E RESOLUCAO NR 205/21                       KIT TANQUE COMBUSTIVEL (NH-1)                                                   87141000Peca                                                                            00000000372300000000000000000000000000000000N                           04001F
10001KIT TANQUE COMBUSTIVEL (NH-1)                                                   00000000000000006170K2G920    
2000100005754401    15373395000145062002562      20240404B0401OIL 0004            DILUENTE PESADO (TINTA)    SAO                         Litro                                                                           38140090000000000180000000000009802200
2000200006625490    61074506000130062002562      20240401B2811MIG 0122            ARAME MIG 1,0MM (BARRICA)                              Quilo                                                                           72292000000000000260000000000012620000
2000300000651291    53910899001037062002562      20240401B2811MIG 0124            ARAME SOLDA MIG BRAZING 1,0MM                          Quilo                                                                           83119000000000000180000000000131070000
2000400006524420    61074506000130062002562      20240322B2811MIG 0125            ARAME MIG 0,8MM                                        Quilo                                                                           72292000000000000250000000000012910000
2000500005792531    15373395000145062002562      20240404B3609ESM 0357            ESM AC ELET. PRETO (NH1)  SAO                          Litro                                                                           32081010000000000860000000000021036600
2000600005792441    15373395000145062002562      20240404B3609PRM 0123            PRIMER EPOXY ECO FLEX PRETO                            Litro                                                                           32089010000000000590000000000029043900
20007000000646914   45985371005339062002562      20240320D0204FIT 0122            FITA IMPRESSO  72 X 1000MM                             Metro                                                                           39199010000000016300000000000001725133
2000800001224522    06996299000162062002562      20240327D0501CAL 0163            CALCO TQ.COMB. MODELO KSSJ                             Unidade                                                                         84799090000000010000000000000033940000
2000900000681731    34582973000106062002562      20240403D1004SAC 0195            SACO POL.COLAM.DUP.700X1000                            Unidade                                                                         84798999000000010000000000000005290000
2001000001220812    06996299000162062002562      20240320D1411PPL 0011            CAIXA PAP Nr09 685X492X446                             Unidade                                                                         48191000000000010000000000000015150000
2001100000484587    01111039000149062002562      20240405D2403ETI 0140            ETIQUETA ASTEC 58X76                                   Unidade                                                                         48211000000000010000000000000000060000
2001200000767611    10310057000140062002562      2024040517506KVS F000 H1DA       ANEL JOGO BOMBA COMB.                                  Peca                                                                            73269090000000010000000000000004322900
2001300000767611    10310057000140062002562      2024040517514KVS J000 H1         REFORCO ESTAMPADO PARA SUPORTE DA BOMBA DE COMBUSTIVEL Peca                                                                            73261900000000010000000000000005315800
2001400005220051    68032648000264062002562      202401151752AK2G 9000            REFORCO DIANT.ESQ.                                     Peca                                                                            87141000000000010000000000000003610000
2001500003256901    06037638000183062002562      2024040517521K3H B000 H1         BOCAL TANQUE COMB.COMP.                                Peca                                                                            87141000000000010000000000000061194000
2001600005206441    68032648000264062002562      2024010817522K2G 9000 H1         REFORCO DIANT.DIR.                                     Peca                                                                            87141000000000010000000000000001910000
2001700005183951    68032648000264062002562      2023120917524K2G 9000 H1         REFORCO DIR.SUPTE.TRAS.INF.                            Peca                                                                            87141000000000010000000000000000520000
2001800005183941    68032648000264062002562      2023120917525K2G 9000 H1         REFORCO,ESQ.SUPTE.TRAS.INF.                            Peca                                                                            87141000000000010000000000000000520000
2001900005190261    68032648000264062002562      2023120717526K2G 9000 H1         REFORCO SUPTE.TRAS.SUP.                                Peca                                                                            40091290000000010000000000000000830000
2002000001688111    43807239000180062002562      2024010817528K2G 9000 H1         SUPT.DIANT.DIR.                                        Peca                                                                            39199010000000010000000000000006140000
2002100001688111    43807239000180062002562      2024010817529K2G 9000 H1         SUPT.DIANT.ESQ.                                        Peca                                                                            40169990000000010000000000000006140000
2002200004026111    02499629000153062002562      2023122017530K2G 9000 H1         SUPT.TRASEIRO SUP.                                     Peca                                                                            87141000000000010000000000000047100000
2002300004068021    02499629000153062002562      2024020217531K2G 9000 H1         SUPT.TRASEIRO INF.                                     Peca                                                                            40091290000000010000000000000070900000
2002400002901957    48610521000197062002562      2024040217533K3H B000            MOLA, DO TIPO PLACA CIRCULAR, DE VEDACAO DO BOCAL DO TAPeca                                                                            73209000000000010000000000000003324710
2002500000582361    03977372000160062002562      2024040417612K3H B000            COXIM TANQUE COMB.         SAO                         Peca                                                                            40169990000000020000000000000000467890
2002600000582361    03977372000160062002562      2024040431503K1S B301            COXIM A                                                Peca                                                                            40169990000000070000000000000000325128
2002700008498555    61096996000175062002562      2024040390306KSS 9001 H1         PORCA QUADRADA, DA PLACA TRANSVERSAL SUPERIOR DO CHASSIPeca                                                                            73181600000000020000000000000000066774
40001SS2406401986018030000000000                                  0000000017611K3H B000            COXIM DIANTEIRO DO TANQUE DE COMBUSTIVEL DA MOTOCICLETA                                                                                00000000000000020000000N000000009365361
900000031
